Archive member included to satisfy reference by file (symbol)

/Applications/STM32CubeIDE.app/Contents/Eclipse/plugins/com.st.stm32cube.ide.mcu.externaltools.gnu-tools-for-stm32.7-2018-q2-update.macos64_1.0.0.201904181610/tools/bin/../lib/gcc/arm-none-eabi/7.3.1/../../../../arm-none-eabi/lib/thumb/v7e-m/fpv4-sp/hard/libc_nano.a(lib_a-errno.o)
                              Core/Src/syscalls.o (__errno)
/Applications/STM32CubeIDE.app/Contents/Eclipse/plugins/com.st.stm32cube.ide.mcu.externaltools.gnu-tools-for-stm32.7-2018-q2-update.macos64_1.0.0.201904181610/tools/bin/../lib/gcc/arm-none-eabi/7.3.1/../../../../arm-none-eabi/lib/thumb/v7e-m/fpv4-sp/hard/libc_nano.a(lib_a-exit.o)
                              /Applications/STM32CubeIDE.app/Contents/Eclipse/plugins/com.st.stm32cube.ide.mcu.externaltools.gnu-tools-for-stm32.7-2018-q2-update.macos64_1.0.0.201904181610/tools/bin/../lib/gcc/arm-none-eabi/7.3.1/../../../../arm-none-eabi/lib/thumb/v7e-m/fpv4-sp/hard/crt0.o (exit)
/Applications/STM32CubeIDE.app/Contents/Eclipse/plugins/com.st.stm32cube.ide.mcu.externaltools.gnu-tools-for-stm32.7-2018-q2-update.macos64_1.0.0.201904181610/tools/bin/../lib/gcc/arm-none-eabi/7.3.1/../../../../arm-none-eabi/lib/thumb/v7e-m/fpv4-sp/hard/libc_nano.a(lib_a-impure.o)
                              /Applications/STM32CubeIDE.app/Contents/Eclipse/plugins/com.st.stm32cube.ide.mcu.externaltools.gnu-tools-for-stm32.7-2018-q2-update.macos64_1.0.0.201904181610/tools/bin/../lib/gcc/arm-none-eabi/7.3.1/../../../../arm-none-eabi/lib/thumb/v7e-m/fpv4-sp/hard/libc_nano.a(lib_a-exit.o) (_global_impure_ptr)
/Applications/STM32CubeIDE.app/Contents/Eclipse/plugins/com.st.stm32cube.ide.mcu.externaltools.gnu-tools-for-stm32.7-2018-q2-update.macos64_1.0.0.201904181610/tools/bin/../lib/gcc/arm-none-eabi/7.3.1/../../../../arm-none-eabi/lib/thumb/v7e-m/fpv4-sp/hard/libc_nano.a(lib_a-init.o)
                              /Applications/STM32CubeIDE.app/Contents/Eclipse/plugins/com.st.stm32cube.ide.mcu.externaltools.gnu-tools-for-stm32.7-2018-q2-update.macos64_1.0.0.201904181610/tools/bin/../lib/gcc/arm-none-eabi/7.3.1/../../../../arm-none-eabi/lib/thumb/v7e-m/fpv4-sp/hard/crt0.o (__libc_init_array)
/Applications/STM32CubeIDE.app/Contents/Eclipse/plugins/com.st.stm32cube.ide.mcu.externaltools.gnu-tools-for-stm32.7-2018-q2-update.macos64_1.0.0.201904181610/tools/bin/../lib/gcc/arm-none-eabi/7.3.1/../../../../arm-none-eabi/lib/thumb/v7e-m/fpv4-sp/hard/libc_nano.a(lib_a-itoa.o)
                              Core/Src/main.o (itoa)
/Applications/STM32CubeIDE.app/Contents/Eclipse/plugins/com.st.stm32cube.ide.mcu.externaltools.gnu-tools-for-stm32.7-2018-q2-update.macos64_1.0.0.201904181610/tools/bin/../lib/gcc/arm-none-eabi/7.3.1/../../../../arm-none-eabi/lib/thumb/v7e-m/fpv4-sp/hard/libc_nano.a(lib_a-memset.o)
                              /Applications/STM32CubeIDE.app/Contents/Eclipse/plugins/com.st.stm32cube.ide.mcu.externaltools.gnu-tools-for-stm32.7-2018-q2-update.macos64_1.0.0.201904181610/tools/bin/../lib/gcc/arm-none-eabi/7.3.1/../../../../arm-none-eabi/lib/thumb/v7e-m/fpv4-sp/hard/crt0.o (memset)
/Applications/STM32CubeIDE.app/Contents/Eclipse/plugins/com.st.stm32cube.ide.mcu.externaltools.gnu-tools-for-stm32.7-2018-q2-update.macos64_1.0.0.201904181610/tools/bin/../lib/gcc/arm-none-eabi/7.3.1/../../../../arm-none-eabi/lib/thumb/v7e-m/fpv4-sp/hard/libc_nano.a(lib_a-utoa.o)
                              /Applications/STM32CubeIDE.app/Contents/Eclipse/plugins/com.st.stm32cube.ide.mcu.externaltools.gnu-tools-for-stm32.7-2018-q2-update.macos64_1.0.0.201904181610/tools/bin/../lib/gcc/arm-none-eabi/7.3.1/../../../../arm-none-eabi/lib/thumb/v7e-m/fpv4-sp/hard/libc_nano.a(lib_a-itoa.o) (__utoa)
/Applications/STM32CubeIDE.app/Contents/Eclipse/plugins/com.st.stm32cube.ide.mcu.externaltools.gnu-tools-for-stm32.7-2018-q2-update.macos64_1.0.0.201904181610/tools/bin/../lib/gcc/arm-none-eabi/7.3.1/../../../../arm-none-eabi/lib/thumb/v7e-m/fpv4-sp/hard/libm.a(lib_a-sf_sin.o)
                              Core/Src/sinwave.o (sinf)
/Applications/STM32CubeIDE.app/Contents/Eclipse/plugins/com.st.stm32cube.ide.mcu.externaltools.gnu-tools-for-stm32.7-2018-q2-update.macos64_1.0.0.201904181610/tools/bin/../lib/gcc/arm-none-eabi/7.3.1/../../../../arm-none-eabi/lib/thumb/v7e-m/fpv4-sp/hard/libm.a(lib_a-ef_rem_pio2.o)
                              /Applications/STM32CubeIDE.app/Contents/Eclipse/plugins/com.st.stm32cube.ide.mcu.externaltools.gnu-tools-for-stm32.7-2018-q2-update.macos64_1.0.0.201904181610/tools/bin/../lib/gcc/arm-none-eabi/7.3.1/../../../../arm-none-eabi/lib/thumb/v7e-m/fpv4-sp/hard/libm.a(lib_a-sf_sin.o) (__ieee754_rem_pio2f)
/Applications/STM32CubeIDE.app/Contents/Eclipse/plugins/com.st.stm32cube.ide.mcu.externaltools.gnu-tools-for-stm32.7-2018-q2-update.macos64_1.0.0.201904181610/tools/bin/../lib/gcc/arm-none-eabi/7.3.1/../../../../arm-none-eabi/lib/thumb/v7e-m/fpv4-sp/hard/libm.a(lib_a-kf_cos.o)
                              /Applications/STM32CubeIDE.app/Contents/Eclipse/plugins/com.st.stm32cube.ide.mcu.externaltools.gnu-tools-for-stm32.7-2018-q2-update.macos64_1.0.0.201904181610/tools/bin/../lib/gcc/arm-none-eabi/7.3.1/../../../../arm-none-eabi/lib/thumb/v7e-m/fpv4-sp/hard/libm.a(lib_a-sf_sin.o) (__kernel_cosf)
/Applications/STM32CubeIDE.app/Contents/Eclipse/plugins/com.st.stm32cube.ide.mcu.externaltools.gnu-tools-for-stm32.7-2018-q2-update.macos64_1.0.0.201904181610/tools/bin/../lib/gcc/arm-none-eabi/7.3.1/../../../../arm-none-eabi/lib/thumb/v7e-m/fpv4-sp/hard/libm.a(lib_a-kf_rem_pio2.o)
                              /Applications/STM32CubeIDE.app/Contents/Eclipse/plugins/com.st.stm32cube.ide.mcu.externaltools.gnu-tools-for-stm32.7-2018-q2-update.macos64_1.0.0.201904181610/tools/bin/../lib/gcc/arm-none-eabi/7.3.1/../../../../arm-none-eabi/lib/thumb/v7e-m/fpv4-sp/hard/libm.a(lib_a-ef_rem_pio2.o) (__kernel_rem_pio2f)
/Applications/STM32CubeIDE.app/Contents/Eclipse/plugins/com.st.stm32cube.ide.mcu.externaltools.gnu-tools-for-stm32.7-2018-q2-update.macos64_1.0.0.201904181610/tools/bin/../lib/gcc/arm-none-eabi/7.3.1/../../../../arm-none-eabi/lib/thumb/v7e-m/fpv4-sp/hard/libm.a(lib_a-kf_sin.o)
                              /Applications/STM32CubeIDE.app/Contents/Eclipse/plugins/com.st.stm32cube.ide.mcu.externaltools.gnu-tools-for-stm32.7-2018-q2-update.macos64_1.0.0.201904181610/tools/bin/../lib/gcc/arm-none-eabi/7.3.1/../../../../arm-none-eabi/lib/thumb/v7e-m/fpv4-sp/hard/libm.a(lib_a-sf_sin.o) (__kernel_sinf)
/Applications/STM32CubeIDE.app/Contents/Eclipse/plugins/com.st.stm32cube.ide.mcu.externaltools.gnu-tools-for-stm32.7-2018-q2-update.macos64_1.0.0.201904181610/tools/bin/../lib/gcc/arm-none-eabi/7.3.1/../../../../arm-none-eabi/lib/thumb/v7e-m/fpv4-sp/hard/libm.a(lib_a-sf_fabs.o)
                              /Applications/STM32CubeIDE.app/Contents/Eclipse/plugins/com.st.stm32cube.ide.mcu.externaltools.gnu-tools-for-stm32.7-2018-q2-update.macos64_1.0.0.201904181610/tools/bin/../lib/gcc/arm-none-eabi/7.3.1/../../../../arm-none-eabi/lib/thumb/v7e-m/fpv4-sp/hard/libm.a(lib_a-ef_rem_pio2.o) (fabsf)
/Applications/STM32CubeIDE.app/Contents/Eclipse/plugins/com.st.stm32cube.ide.mcu.externaltools.gnu-tools-for-stm32.7-2018-q2-update.macos64_1.0.0.201904181610/tools/bin/../lib/gcc/arm-none-eabi/7.3.1/../../../../arm-none-eabi/lib/thumb/v7e-m/fpv4-sp/hard/libm.a(lib_a-sf_floor.o)
                              /Applications/STM32CubeIDE.app/Contents/Eclipse/plugins/com.st.stm32cube.ide.mcu.externaltools.gnu-tools-for-stm32.7-2018-q2-update.macos64_1.0.0.201904181610/tools/bin/../lib/gcc/arm-none-eabi/7.3.1/../../../../arm-none-eabi/lib/thumb/v7e-m/fpv4-sp/hard/libm.a(lib_a-kf_rem_pio2.o) (floorf)
/Applications/STM32CubeIDE.app/Contents/Eclipse/plugins/com.st.stm32cube.ide.mcu.externaltools.gnu-tools-for-stm32.7-2018-q2-update.macos64_1.0.0.201904181610/tools/bin/../lib/gcc/arm-none-eabi/7.3.1/../../../../arm-none-eabi/lib/thumb/v7e-m/fpv4-sp/hard/libm.a(lib_a-sf_scalbn.o)
                              /Applications/STM32CubeIDE.app/Contents/Eclipse/plugins/com.st.stm32cube.ide.mcu.externaltools.gnu-tools-for-stm32.7-2018-q2-update.macos64_1.0.0.201904181610/tools/bin/../lib/gcc/arm-none-eabi/7.3.1/../../../../arm-none-eabi/lib/thumb/v7e-m/fpv4-sp/hard/libm.a(lib_a-kf_rem_pio2.o) (scalbnf)
/Applications/STM32CubeIDE.app/Contents/Eclipse/plugins/com.st.stm32cube.ide.mcu.externaltools.gnu-tools-for-stm32.7-2018-q2-update.macos64_1.0.0.201904181610/tools/bin/../lib/gcc/arm-none-eabi/7.3.1/../../../../arm-none-eabi/lib/thumb/v7e-m/fpv4-sp/hard/libm.a(lib_a-sf_copysign.o)
                              /Applications/STM32CubeIDE.app/Contents/Eclipse/plugins/com.st.stm32cube.ide.mcu.externaltools.gnu-tools-for-stm32.7-2018-q2-update.macos64_1.0.0.201904181610/tools/bin/../lib/gcc/arm-none-eabi/7.3.1/../../../../arm-none-eabi/lib/thumb/v7e-m/fpv4-sp/hard/libm.a(lib_a-sf_scalbn.o) (copysignf)
/Applications/STM32CubeIDE.app/Contents/Eclipse/plugins/com.st.stm32cube.ide.mcu.externaltools.gnu-tools-for-stm32.7-2018-q2-update.macos64_1.0.0.201904181610/tools/bin/../lib/gcc/arm-none-eabi/7.3.1/thumb/v7e-m/fpv4-sp/hard/libgcc.a(_aeabi_uldivmod.o)
                              Drivers/STM32F4xx_HAL_Driver/Src/stm32f4xx_hal_rcc.o (__aeabi_uldivmod)
/Applications/STM32CubeIDE.app/Contents/Eclipse/plugins/com.st.stm32cube.ide.mcu.externaltools.gnu-tools-for-stm32.7-2018-q2-update.macos64_1.0.0.201904181610/tools/bin/../lib/gcc/arm-none-eabi/7.3.1/thumb/v7e-m/fpv4-sp/hard/libgcc.a(_udivmoddi4.o)
                              /Applications/STM32CubeIDE.app/Contents/Eclipse/plugins/com.st.stm32cube.ide.mcu.externaltools.gnu-tools-for-stm32.7-2018-q2-update.macos64_1.0.0.201904181610/tools/bin/../lib/gcc/arm-none-eabi/7.3.1/thumb/v7e-m/fpv4-sp/hard/libgcc.a(_aeabi_uldivmod.o) (__udivmoddi4)
/Applications/STM32CubeIDE.app/Contents/Eclipse/plugins/com.st.stm32cube.ide.mcu.externaltools.gnu-tools-for-stm32.7-2018-q2-update.macos64_1.0.0.201904181610/tools/bin/../lib/gcc/arm-none-eabi/7.3.1/thumb/v7e-m/fpv4-sp/hard/libgcc.a(_dvmd_tls.o)
                              /Applications/STM32CubeIDE.app/Contents/Eclipse/plugins/com.st.stm32cube.ide.mcu.externaltools.gnu-tools-for-stm32.7-2018-q2-update.macos64_1.0.0.201904181610/tools/bin/../lib/gcc/arm-none-eabi/7.3.1/thumb/v7e-m/fpv4-sp/hard/libgcc.a(_aeabi_uldivmod.o) (__aeabi_ldiv0)

Allocating common symbols
Common symbol       size              file

USERPath            0x4               FATFS/App/fatfs.o
numavg              0x4               Core/Src/main.o
fs                  0x230             Core/Src/main.o
rec_buf1            0xa000            Core/Src/main.o
accumulator         0x4               Core/Src/main.o
uwTick              0x4               Drivers/STM32F4xx_HAL_Driver/Src/stm32f4xx_hal.o
pFlash              0x20              Drivers/STM32F4xx_HAL_Driver/Src/stm32f4xx_hal_flash.o
htim3               0x40              Core/Src/main.o
hdma_dac1           0x60              Core/Src/main.o
outputbuf           0x800             Core/Src/main.o
offset_523hz        0x2               Core/Src/sinwave.o
hadc1               0x48              Core/Src/main.o
sdfile              0x230             Core/Src/main.o
hdma_usart2_tx      0x60              Core/Src/main.o
offset_440hz        0x2               Core/Src/sinwave.o
hdac                0x14              Core/Src/main.o
hdma_adc1           0x60              Core/Src/main.o
retUSER             0x1               FATFS/App/fatfs.o
htim1               0x40              Core/Src/main.o
sintab              0x200             Core/Src/sinwave.o
hspi1               0x58              Core/Src/main.o
htim2               0x40              Core/Src/main.o
huart2              0x40              Core/Src/main.o
fres                0x1               Core/Src/main.o
tempsample          0x4               Core/Src/main.o
USERFile            0x230             FATFS/App/fatfs.o
USERFatFS           0x230             FATFS/App/fatfs.o
record_buffer       0x800             Core/Src/main.o
DACbuffer           0x800             Core/Src/main.o

Discarded input sections

 .text          0x0000000000000000        0x0 /Applications/STM32CubeIDE.app/Contents/Eclipse/plugins/com.st.stm32cube.ide.mcu.externaltools.gnu-tools-for-stm32.7-2018-q2-update.macos64_1.0.0.201904181610/tools/bin/../lib/gcc/arm-none-eabi/7.3.1/thumb/v7e-m/fpv4-sp/hard/crti.o
 .data          0x0000000000000000        0x0 /Applications/STM32CubeIDE.app/Contents/Eclipse/plugins/com.st.stm32cube.ide.mcu.externaltools.gnu-tools-for-stm32.7-2018-q2-update.macos64_1.0.0.201904181610/tools/bin/../lib/gcc/arm-none-eabi/7.3.1/thumb/v7e-m/fpv4-sp/hard/crti.o
 .bss           0x0000000000000000        0x0 /Applications/STM32CubeIDE.app/Contents/Eclipse/plugins/com.st.stm32cube.ide.mcu.externaltools.gnu-tools-for-stm32.7-2018-q2-update.macos64_1.0.0.201904181610/tools/bin/../lib/gcc/arm-none-eabi/7.3.1/thumb/v7e-m/fpv4-sp/hard/crti.o
 .data          0x0000000000000000        0x4 /Applications/STM32CubeIDE.app/Contents/Eclipse/plugins/com.st.stm32cube.ide.mcu.externaltools.gnu-tools-for-stm32.7-2018-q2-update.macos64_1.0.0.201904181610/tools/bin/../lib/gcc/arm-none-eabi/7.3.1/thumb/v7e-m/fpv4-sp/hard/crtbegin.o
 .text          0x0000000000000000       0x74 /Applications/STM32CubeIDE.app/Contents/Eclipse/plugins/com.st.stm32cube.ide.mcu.externaltools.gnu-tools-for-stm32.7-2018-q2-update.macos64_1.0.0.201904181610/tools/bin/../lib/gcc/arm-none-eabi/7.3.1/../../../../arm-none-eabi/lib/thumb/v7e-m/fpv4-sp/hard/crt0.o
 .data          0x0000000000000000        0x0 /Applications/STM32CubeIDE.app/Contents/Eclipse/plugins/com.st.stm32cube.ide.mcu.externaltools.gnu-tools-for-stm32.7-2018-q2-update.macos64_1.0.0.201904181610/tools/bin/../lib/gcc/arm-none-eabi/7.3.1/../../../../arm-none-eabi/lib/thumb/v7e-m/fpv4-sp/hard/crt0.o
 .bss           0x0000000000000000        0x0 /Applications/STM32CubeIDE.app/Contents/Eclipse/plugins/com.st.stm32cube.ide.mcu.externaltools.gnu-tools-for-stm32.7-2018-q2-update.macos64_1.0.0.201904181610/tools/bin/../lib/gcc/arm-none-eabi/7.3.1/../../../../arm-none-eabi/lib/thumb/v7e-m/fpv4-sp/hard/crt0.o
 .ARM.extab     0x0000000000000000        0x0 /Applications/STM32CubeIDE.app/Contents/Eclipse/plugins/com.st.stm32cube.ide.mcu.externaltools.gnu-tools-for-stm32.7-2018-q2-update.macos64_1.0.0.201904181610/tools/bin/../lib/gcc/arm-none-eabi/7.3.1/../../../../arm-none-eabi/lib/thumb/v7e-m/fpv4-sp/hard/crt0.o
 .ARM.exidx     0x0000000000000000        0x8 /Applications/STM32CubeIDE.app/Contents/Eclipse/plugins/com.st.stm32cube.ide.mcu.externaltools.gnu-tools-for-stm32.7-2018-q2-update.macos64_1.0.0.201904181610/tools/bin/../lib/gcc/arm-none-eabi/7.3.1/../../../../arm-none-eabi/lib/thumb/v7e-m/fpv4-sp/hard/crt0.o
 .ARM.attributes
                0x0000000000000000       0x20 /Applications/STM32CubeIDE.app/Contents/Eclipse/plugins/com.st.stm32cube.ide.mcu.externaltools.gnu-tools-for-stm32.7-2018-q2-update.macos64_1.0.0.201904181610/tools/bin/../lib/gcc/arm-none-eabi/7.3.1/../../../../arm-none-eabi/lib/thumb/v7e-m/fpv4-sp/hard/crt0.o
 .group         0x0000000000000000        0xc Core/Src/Record.o
 .text          0x0000000000000000        0x0 Core/Src/Record.o
 .data          0x0000000000000000        0x0 Core/Src/Record.o
 .bss           0x0000000000000000        0x0 Core/Src/Record.o
 .debug_info    0x0000000000000000       0x21 Core/Src/Record.o
 .debug_abbrev  0x0000000000000000       0x13 Core/Src/Record.o
 .debug_aranges
Memory Configuration

Name             Origin             Length             Attributes
RAM              0x0000000020000000 0x0000000000020000 xrw
FLASH            0x0000000008000000 0x0000000000080000 xr
*default*        0x0000000000000000 0xffffffffffffffff

Linker script and memory map

LOAD /Applications/STM32CubeIDE.app/Contents/Eclipse/plugins/com.st.stm32cube.ide.mcu.externaltools.gnu-tools-for-stm32.7-2018-q2-update.macos64_1.0.0.201904181610/tools/bin/../lib/gcc/arm-none-eabi/7.3.1/thumb/v7e-m/fpv4-sp/hard/crti.o
LOAD /Applications/STM32CubeIDE.app/Contents/Eclipse/plugins/com.st.stm32cube.ide.mcu.externaltools.gnu-tools-for-stm32.7-2018-q2-update.macos64_1.0.0.201904181610/tools/bin/../lib/gcc/arm-none-eabi/7.3.1/thumb/v7e-m/fpv4-sp/hard/crtbegin.o
LOAD /Applications/STM32CubeIDE.app/Contents/Eclipse/plugins/com.st.stm32cube.ide.mcu.externaltools.gnu-tools-for-stm32.7-2018-q2-update.macos64_1.0.0.201904181610/tools/bin/../lib/gcc/arm-none-eabi/7.3.1/../../../../arm-none-eabi/lib/thumb/v7e-m/fpv4-sp/hard/crt0.o
LOAD Core/Src/Record.o
LOAD Core/Src/main.o
LOAD Core/Src/playback.o
LOAD Core/Src/sinwave.o
LOAD Core/Src/stm32f4xx_hal_msp.o
LOAD Core/Src/stm32f4xx_it.o
LOAD Core/Src/stop.o
LOAD Core/Src/syscalls.o
LOAD Core/Src/sysmem.o
LOAD Core/Src/system_stm32f4xx.o
LOAD Core/Startup/startup_stm32f446retx.o
LOAD Core/buttons.o
LOAD Core/leds.o
LOAD Core/sd.o
LOAD Drivers/STM32F4xx_HAL_Driver/Src/stm32f4xx_hal.o
LOAD Drivers/STM32F4xx_HAL_Driver/Src/stm32f4xx_hal_adc.o
LOAD Drivers/STM32F4xx_HAL_Driver/Src/stm32f4xx_hal_adc_ex.o
LOAD Drivers/STM32F4xx_HAL_Driver/Src/stm32f4xx_hal_cortex.o
LOAD Drivers/STM32F4xx_HAL_Driver/Src/stm32f4xx_hal_dac.o
LOAD Drivers/STM32F4xx_HAL_Driver/Src/stm32f4xx_hal_dac_ex.o
LOAD Drivers/STM32F4xx_HAL_Driver/Src/stm32f4xx_hal_dma.o
LOAD Drivers/STM32F4xx_HAL_Driver/Src/stm32f4xx_hal_dma_ex.o
LOAD Drivers/STM32F4xx_HAL_Driver/Src/stm32f4xx_hal_exti.o
LOAD Drivers/STM32F4xx_HAL_Driver/Src/stm32f4xx_hal_flash.o
LOAD Drivers/STM32F4xx_HAL_Driver/Src/stm32f4xx_hal_flash_ex.o
LOAD Drivers/STM32F4xx_HAL_Driver/Src/stm32f4xx_hal_flash_ramfunc.o
LOAD Drivers/STM32F4xx_HAL_Driver/Src/stm32f4xx_hal_gpio.o
LOAD Drivers/STM32F4xx_HAL_Driver/Src/stm32f4xx_hal_pwr.o
LOAD Drivers/STM32F4xx_HAL_Driver/Src/stm32f4xx_hal_pwr_ex.o
LOAD Drivers/STM32F4xx_HAL_Driver/Src/stm32f4xx_hal_rcc.o
LOAD Drivers/STM32F4xx_HAL_Driver/Src/stm32f4xx_hal_rcc_ex.o
LOAD Drivers/STM32F4xx_HAL_Driver/Src/stm32f4xx_hal_spi.o
LOAD Drivers/STM32F4xx_HAL_Driver/Src/stm32f4xx_hal_tim.o
LOAD Drivers/STM32F4xx_HAL_Driver/Src/stm32f4xx_hal_tim_ex.o
LOAD Drivers/STM32F4xx_HAL_Driver/Src/stm32f4xx_hal_uart.o
LOAD FATFS/App/fatfs.o
LOAD FATFS/Target/user_diskio.o
LOAD Middlewares/Third_Party/FatFs/src/diskio.o
LOAD Middlewares/Third_Party/FatFs/src/ff.o
LOAD Middlewares/Third_Party/FatFs/src/ff_gen_drv.o
LOAD Middlewares/Third_Party/FatFs/src/option/syscall.o
START GROUP
LOAD /Applications/STM32CubeIDE.app/Contents/Eclipse/plugins/com.st.stm32cube.ide.mcu.externaltools.gnu-tools-for-stm32.7-2018-q2-update.macos64_1.0.0.201904181610/tools/bin/../lib/gcc/arm-none-eabi/7.3.1/../../../../arm-none-eabi/lib/thumb/v7e-m/fpv4-sp/hard/libc_nano.a
LOAD /Applications/STM32CubeIDE.app/Contents/Eclipse/plugins/com.st.stm32cube.ide.mcu.externaltools.gnu-tools-for-stm32.7-2018-q2-update.macos64_1.0.0.201904181610/tools/bin/../lib/gcc/arm-none-eabi/7.3.1/../../../../arm-none-eabi/lib/thumb/v7e-m/fpv4-sp/hard/libm.a
END GROUP
START GROUP
LOAD /Applications/STM32CubeIDE.app/Contents/Eclipse/plugins/com.st.stm32cube.ide.mcu.externaltools.gnu-tools-for-stm32.7-2018-q2-update.macos64_1.0.0.201904181610/tools/bin/../lib/gcc/arm-none-eabi/7.3.1/thumb/v7e-m/fpv4-sp/hard/libgcc.a
LOAD /Applications/STM32CubeIDE.app/Contents/Eclipse/plugins/com.st.stm32cube.ide.mcu.externaltools.gnu-tools-for-stm32.7-2018-q2-update.macos64_1.0.0.201904181610/tools/bin/../lib/gcc/arm-none-eabi/7.3.1/../../../../arm-none-eabi/lib/thumb/v7e-m/fpv4-sp/hard/libc_nano.a
END GROUP
START GROUP
LOAD /Applications/STM32CubeIDE.app/Contents/Eclipse/plugins/com.st.stm32cube.ide.mcu.externaltools.gnu-tools-for-stm32.7-2018-q2-update.macos64_1.0.0.201904181610/tools/bin/../lib/gcc/arm-none-eabi/7.3.1/thumb/v7e-m/fpv4-sp/hard/libgcc.a
LOAD /Applications/STM32CubeIDE.app/Contents/Eclipse/plugins/com.st.stm32cube.ide.mcu.externaltools.gnu-tools-for-stm32.7-2018-q2-update.macos64_1.0.0.201904181610/tools/bin/../lib/gcc/arm-none-eabi/7.3.1/../../../../arm-none-eabi/lib/thumb/v7e-m/fpv4-sp/hard/libc_nano.a
LOAD /Applications/STM32CubeIDE.app/Contents/Eclipse/plugins/com.st.stm32cube.ide.mcu.externaltools.gnu-tools-for-stm32.7-2018-q2-update.macos64_1.0.0.201904181610/tools/bin/../lib/gcc/arm-none-eabi/7.3.1/../../../../arm-none-eabi/lib/thumb/v7e-m/fpv4-sp/hard/libnosys.a
END GROUP
START GROUP
LOAD /Applications/STM32CubeIDE.app/Contents/Eclipse/plugins/com.st.stm32cube.ide.mcu.externaltools.gnu-tools-for-stm32.7-2018-q2-update.macos64_1.0.0.201904181610/tools/bin/../lib/gcc/arm-none-eabi/7.3.1/thumb/v7e-m/fpv4-sp/hard/libgcc.a
LOAD /Applications/STM32CubeIDE.app/Contents/Eclipse/plugins/com.st.stm32cube.ide.mcu.externaltools.gnu-tools-for-stm32.7-2018-q2-update.macos64_1.0.0.201904181610/tools/bin/../lib/gcc/arm-none-eabi/7.3.1/../../../../arm-none-eabi/lib/thumb/v7e-m/fpv4-sp/hard/libc_nano.a
LOAD /Applications/STM32CubeIDE.app/Contents/Eclipse/plugins/com.st.stm32cube.ide.mcu.externaltools.gnu-tools-for-stm32.7-2018-q2-update.macos64_1.0.0.201904181610/tools/bin/../lib/gcc/arm-none-eabi/7.3.1/../../../../arm-none-eabi/lib/thumb/v7e-m/fpv4-sp/hard/libnosys.a
END GROUP
LOAD /Applications/STM32CubeIDE.app/Contents/Eclipse/plugins/com.st.stm32cube.ide.mcu.externaltools.gnu-tools-for-stm32.7-2018-q2-update.macos64_1.0.0.201904181610/tools/bin/../lib/gcc/arm-none-eabi/7.3.1/thumb/v7e-m/fpv4-sp/hard/crtend.o
LOAD /Applications/STM32CubeIDE.app/Contents/Eclipse/plugins/com.st.stm32cube.ide.mcu.externaltools.gnu-tools-for-stm32.7-2018-q2-update.macos64_1.0.0.201904181610/tools/bin/../lib/gcc/arm-none-eabi/7.3.1/thumb/v7e-m/fpv4-sp/hard/crtn.o
                0x0000000020020000                _estack = (ORIGIN (RAM) + LENGTH (RAM))
                0x0000000000000200                _Min_Heap_Size = 0x200
                0x0000000000000400                _Min_Stack_Size = 0x400

.isr_vector     0x0000000008000000      0x1c4
                0x0000000008000000                . = ALIGN (0x4)
 *(.isr_vector)
 .isr_vector    0x0000000008000000      0x1c4 Core/Startup/startup_stm32f446retx.o
                0x0000000008000000                g_pfnVectors
                0x00000000080001c4                . = ALIGN (0x4)

.text           0x00000000080001c4     0x96b4
                0x00000000080001c4                . = ALIGN (0x4)
 *(.text)
 .text          0x00000000080001c4       0x40 /Applications/STM32CubeIDE.app/Contents/Eclipse/plugins/com.st.stm32cube.ide.mcu.externaltools.gnu-tools-for-stm32.7-2018-q2-update.macos64_1.0.0.201904181610/tools/bin/../lib/gcc/arm-none-eabi/7.3.1/thumb/v7e-m/fpv4-sp/hard/crtbegin.o
 .text          0x0000000008000204       0x30 /Applications/STM32CubeIDE.app/Contents/Eclipse/plugins/com.st.stm32cube.ide.mcu.externaltools.gnu-tools-for-stm32.7-2018-q2-update.macos64_1.0.0.201904181610/tools/bin/../lib/gcc/arm-none-eabi/7.3.1/thumb/v7e-m/fpv4-sp/hard/libgcc.a(_aeabi_uldivmod.o)
                0x0000000008000204                __aeabi_uldivmod
 .text          0x0000000008000234      0x2cc /Applications/STM32CubeIDE.app/Contents/Eclipse/plugins/com.st.stm32cube.ide.mcu.externaltools.gnu-tools-for-stm32.7-2018-q2-update.macos64_1.0.0.201904181610/tools/bin/../lib/gcc/arm-none-eabi/7.3.1/thumb/v7e-m/fpv4-sp/hard/libgcc.a(_udivmoddi4.o)
                0x0000000008000234                __udivmoddi4
 .text          0x0000000008000500        0x4 /Applications/STM32CubeIDE.app/Contents/Eclipse/plugins/com.st.stm32cube.ide.mcu.externaltools.gnu-tools-for-stm32.7-2018-q2-update.macos64_1.0.0.201904181610/tools/bin/../lib/gcc/arm-none-eabi/7.3.1/thumb/v7e-m/fpv4-sp/hard/libgcc.a(_dvmd_tls.o)
                0x0000000008000500                __aeabi_ldiv0
                0x0000000008000500                __aeabi_idiv0
 *(.text*)
 .text.HAL_ADC_ConvCpltCallback
                0x0000000008000504      0x10c Core/Src/main.o
                0x0000000008000504                HAL_ADC_ConvCpltCallback
 .text.HAL_ADC_ConvHalfCpltCallback
                0x0000000008000610      0x10c Core/Src/main.o
                0x0000000008000610                HAL_ADC_ConvHalfCpltCallback
 .text.HAL_DAC_ConvCpltCallbackCh1
                0x000000000800071c       0x70 Core/Src/main.o
                0x000000000800071c                HAL_DAC_ConvCpltCallbackCh1
 .text.HAL_DAC_ConvHalfCpltCallbackCh1
                0x000000000800078c       0x58 Core/Src/main.o
                0x000000000800078c                HAL_DAC_ConvHalfCpltCallbackCh1
 .text.main     0x00000000080007e4      0x600 Core/Src/main.o
                0x00000000080007e4                main
 .text.record_play
                0x0000000008000de4      0x230 Core/Src/main.o
                0x0000000008000de4                record_play
 .text.record_start
                0x0000000008001014      0x20c Core/Src/main.o
                0x0000000008001014                record_start
 .text.stop     0x0000000008001220      0x158 Core/Src/main.o
                0x0000000008001220                stop
 .text.SystemClock_Config
                0x0000000008001378       0xdc Core/Src/main.o
                0x0000000008001378                SystemClock_Config
 .text.MX_ADC1_Init
                0x0000000008001454       0xa8 Core/Src/main.o
 .text.MX_DAC_Init
                0x00000000080014fc       0x54 Core/Src/main.o
 .text.MX_SPI1_Init
                0x0000000008001550       0x6c Core/Src/main.o
 .text.MX_TIM1_Init
                0x00000000080015bc       0xa0 Core/Src/main.o
 .text.MX_TIM2_Init
                0x000000000800165c       0x98 Core/Src/main.o
 .text.MX_TIM3_Init
                0x00000000080016f4       0x9c Core/Src/main.o
 .text.MX_USART2_UART_Init
                0x0000000008001790       0x54 Core/Src/main.o
 .text.MX_DMA_Init
                0x00000000080017e4       0x7c Core/Src/main.o
 .text.MX_GPIO_Init
                0x0000000008001860      0x170 Core/Src/main.o
 .text.HAL_GPIO_EXTI_Callback
                0x00000000080019d0       0x16 Core/Src/main.o
                0x00000000080019d0                HAL_GPIO_EXTI_Callback
 .text.HAL_TIM_PeriodElapsedCallback
                0x00000000080019e6       0x14 Core/Src/main.o
                0x00000000080019e6                HAL_TIM_PeriodElapsedCallback
 .text.Error_Handler
                0x00000000080019fa        0xe Core/Src/main.o
                0x00000000080019fa                Error_Handler
 .text.wave_init
                0x0000000008001a08       0x78 Core/Src/sinwave.o
                0x0000000008001a08                wave_init
 .text.wave_fillbuffer
                0x0000000008001a80       0xf4 Core/Src/sinwave.o
                0x0000000008001a80                wave_fillbuffer
 .text.HAL_MspInit
                0x0000000008001b74       0x50 Core/Src/stm32f4xx_hal_msp.o
                0x0000000008001b74                HAL_MspInit
 .text.HAL_ADC_MspInit
                0x0000000008001bc4       0xec Core/Src/stm32f4xx_hal_msp.o
                0x0000000008001bc4                HAL_ADC_MspInit
 .text.HAL_DAC_MspInit
                0x0000000008001cb0       0xf0 Core/Src/stm32f4xx_hal_msp.o
                0x0000000008001cb0                HAL_DAC_MspInit
 .text.HAL_SPI_MspInit
                0x0000000008001da0       0xd0 Core/Src/stm32f4xx_hal_msp.o
                0x0000000008001da0                HAL_SPI_MspInit
 .text.HAL_TIM_Base_MspInit
                0x0000000008001e70       0xe4 Core/Src/stm32f4xx_hal_msp.o
                0x0000000008001e70                HAL_TIM_Base_MspInit
 .text.HAL_UART_MspInit
                0x0000000008001f54       0xf4 Core/Src/stm32f4xx_hal_msp.o
                0x0000000008001f54                HAL_UART_MspInit
 .text.NMI_Handler
                0x0000000008002048        0xe Core/Src/stm32f4xx_it.o
                0x0000000008002048                NMI_Handler
 .text.HardFault_Handler
                0x0000000008002056        0x6 Core/Src/stm32f4xx_it.o
                0x0000000008002056                HardFault_Handler
 .text.MemManage_Handler
                0x000000000800205c        0x6 Core/Src/stm32f4xx_it.o
                0x000000000800205c                MemManage_Handler
 .text.BusFault_Handler
                0x0000000008002062        0x6 Core/Src/stm32f4xx_it.o
                0x0000000008002062                BusFault_Handler
 .text.UsageFault_Handler
                0x0000000008002068        0x6 Core/Src/stm32f4xx_it.o
                0x0000000008002068                UsageFault_Handler
 .text.SVC_Handler
                0x000000000800206e        0xe Core/Src/stm32f4xx_it.o
                0x000000000800206e                SVC_Handler
 .text.DebugMon_Handler
                0x000000000800207c        0xe Core/Src/stm32f4xx_it.o
                0x000000000800207c                DebugMon_Handler
 .text.PendSV_Handler
                0x000000000800208a        0xe Core/Src/stm32f4xx_it.o
                0x000000000800208a                PendSV_Handler
 .text.SysTick_Handler
                0x0000000008002098        0xc Core/Src/stm32f4xx_it.o
                0x0000000008002098                SysTick_Handler
 .text.EXTI4_IRQHandler
                0x00000000080020a4       0x2c Core/Src/stm32f4xx_it.o
                0x00000000080020a4                EXTI4_IRQHandler
 .text.DMA1_Stream5_IRQHandler
                0x00000000080020d0       0x14 Core/Src/stm32f4xx_it.o
                0x00000000080020d0                DMA1_Stream5_IRQHandler
 .text.DMA1_Stream6_IRQHandler
                0x00000000080020e4       0x14 Core/Src/stm32f4xx_it.o
                0x00000000080020e4                DMA1_Stream6_IRQHandler
 .text.TIM1_BRK_TIM9_IRQHandler
                0x00000000080020f8       0x14 Core/Src/stm32f4xx_it.o
                0x00000000080020f8                TIM1_BRK_TIM9_IRQHandler
 .text.TIM1_UP_TIM10_IRQHandler
                0x000000000800210c       0x14 Core/Src/stm32f4xx_it.o
                0x000000000800210c                TIM1_UP_TIM10_IRQHandler
 .text.TIM1_TRG_COM_TIM11_IRQHandler
                0x0000000008002120       0x14 Core/Src/stm32f4xx_it.o
                0x0000000008002120                TIM1_TRG_COM_TIM11_IRQHandler
 .text.TIM1_CC_IRQHandler
                0x0000000008002134       0x14 Core/Src/stm32f4xx_it.o
                0x0000000008002134                TIM1_CC_IRQHandler
 .text.TIM2_IRQHandler
                0x0000000008002148       0x14 Core/Src/stm32f4xx_it.o
                0x0000000008002148                TIM2_IRQHandler
 .text.EXTI15_10_IRQHandler
                0x000000000800215c       0x9c Core/Src/stm32f4xx_it.o
                0x000000000800215c                EXTI15_10_IRQHandler
 .text.DMA2_Stream0_IRQHandler
                0x00000000080021f8       0x14 Core/Src/stm32f4xx_it.o
                0x00000000080021f8                DMA2_Stream0_IRQHandler
 .text.SystemInit
                0x000000000800220c       0x2c Core/Src/system_stm32f4xx.o
                0x000000000800220c                SystemInit
 .text.Reset_Handler
                0x0000000008002238       0x50 Core/Startup/startup_stm32f446retx.o
                0x0000000008002238                Reset_Handler
 .text.Default_Handler
                0x0000000008002288        0x2 Core/Startup/startup_stm32f446retx.o
                0x0000000008002288                DMA1_Stream3_IRQHandler
                0x0000000008002288                EXTI2_IRQHandler
                0x0000000008002288                TIM8_CC_IRQHandler
                0x0000000008002288                FMPI2C1_EV_IRQHandler
                0x0000000008002288                SPI4_IRQHandler
                0x0000000008002288                DMA2_Stream5_IRQHandler
                0x0000000008002288                PVD_IRQHandler
                0x0000000008002288                SDIO_IRQHandler
                0x0000000008002288                TAMP_STAMP_IRQHandler
                0x0000000008002288                CAN2_RX1_IRQHandler
                0x0000000008002288                EXTI3_IRQHandler
                0x0000000008002288                TIM8_TRG_COM_TIM14_IRQHandler
                0x0000000008002288                TIM8_UP_TIM13_IRQHandler
                0x0000000008002288                I2C3_ER_IRQHandler
                0x0000000008002288                EXTI0_IRQHandler
                0x0000000008002288                I2C2_EV_IRQHandler
                0x0000000008002288                DMA1_Stream2_IRQHandler
                0x0000000008002288                CAN1_RX0_IRQHandler
                0x0000000008002288                FPU_IRQHandler
                0x0000000008002288                OTG_HS_WKUP_IRQHandler
                0x0000000008002288                CAN2_SCE_IRQHandler
                0x0000000008002288                DMA2_Stream2_IRQHandler
                0x0000000008002288                SPI1_IRQHandler
                0x0000000008002288                TIM6_DAC_IRQHandler
                0x0000000008002288                DCMI_IRQHandler
                0x0000000008002288                CAN2_RX0_IRQHandler
                0x0000000008002288                DMA2_Stream3_IRQHandler
                0x0000000008002288                SAI2_IRQHandler
                0x0000000008002288                USART6_IRQHandler
                0x0000000008002288                USART3_IRQHandler
                0x0000000008002288                CAN1_RX1_IRQHandler
                0x0000000008002288                UART5_IRQHandler
                0x0000000008002288                TIM4_IRQHandler
                0x0000000008002288                QUADSPI_IRQHandler
                0x0000000008002288                I2C1_EV_IRQHandler
                0x0000000008002288                DMA1_Stream1_IRQHandler
                0x0000000008002288                UART4_IRQHandler
                0x0000000008002288                TIM3_IRQHandler
                0x0000000008002288                RCC_IRQHandler
                0x0000000008002288                TIM8_BRK_TIM12_IRQHandler
                0x0000000008002288                Default_Handler
                0x0000000008002288                CEC_IRQHandler
                0x0000000008002288                ADC_IRQHandler
                0x0000000008002288                DMA1_Stream7_IRQHandler
                0x0000000008002288                TIM7_IRQHandler
                0x0000000008002288                CAN2_TX_IRQHandler
                0x0000000008002288                TIM5_IRQHandler
                0x0000000008002288                DMA2_Stream7_IRQHandler
                0x0000000008002288                I2C3_EV_IRQHandler
                0x0000000008002288                EXTI9_5_IRQHandler
                0x0000000008002288                RTC_WKUP_IRQHandler
                0x0000000008002288                SPDIF_RX_IRQHandler
                0x0000000008002288                SPI2_IRQHandler
                0x0000000008002288                OTG_HS_EP1_IN_IRQHandler
                0x0000000008002288                DMA1_Stream0_IRQHandler
                0x0000000008002288                CAN1_TX_IRQHandler
                0x0000000008002288                FMPI2C1_ER_IRQHandler
                0x0000000008002288                OTG_HS_EP1_OUT_IRQHandler
                0x0000000008002288                WWDG_IRQHandler
                0x0000000008002288                OTG_FS_WKUP_IRQHandler
                0x0000000008002288                OTG_HS_IRQHandler
                0x0000000008002288                EXTI1_IRQHandler
                0x0000000008002288                USART2_IRQHandler
                0x0000000008002288                I2C2_ER_IRQHandler
                0x0000000008002288                DMA2_Stream1_IRQHandler
                0x0000000008002288                CAN1_SCE_IRQHandler
                0x0000000008002288                FLASH_IRQHandler
                0x0000000008002288                DMA2_Stream4_IRQHandler
                0x0000000008002288                USART1_IRQHandler
                0x0000000008002288                OTG_FS_IRQHandler
                0x0000000008002288                SPI3_IRQHandler
                0x0000000008002288                DMA1_Stream4_IRQHandler
                0x0000000008002288                I2C1_ER_IRQHandler
                0x0000000008002288                FMC_IRQHandler
                0x0000000008002288                DMA2_Stream6_IRQHandler
                0x0000000008002288                SAI1_IRQHandler
                0x0000000008002288                RTC_Alarm_IRQHandler
 *fill*         0x000000000800228a        0x2 
 .text.SD_ReceiveByte
                0x000000000800228c       0x28 Core/sd.o
                0x000000000800228c                SD_ReceiveByte
 .text.SD_SendCommand
                0x00000000080022b4       0xb4 Core/sd.o
                0x00000000080022b4                SD_SendCommand
 .text.Deselect
                0x0000000008002368       0x1c Core/sd.o
                0x0000000008002368                Deselect
 .text.Select   0x0000000008002384       0x1c Core/sd.o
                0x0000000008002384                Select
 .text.SD_Init  0x00000000080023a0       0xd8 Core/sd.o
                0x00000000080023a0                SD_Init
 .text.SD_RxDataBlock
                0x0000000008002478       0x68 Core/sd.o
                0x0000000008002478                SD_RxDataBlock
 .text.SD_Read  0x00000000080024e0       0x8c Core/sd.o
                0x00000000080024e0                SD_Read
 .text.SD_TxDataBlock
                0x000000000800256c       0x90 Core/sd.o
                0x000000000800256c                SD_TxDataBlock
 .text.SD_Write
                0x00000000080025fc       0x94 Core/sd.o
                0x00000000080025fc                SD_Write
 .text.HAL_Init
                0x0000000008002690       0x44 Drivers/STM32F4xx_HAL_Driver/Src/stm32f4xx_hal.o
                0x0000000008002690                HAL_Init
 .text.HAL_InitTick
                0x00000000080026d4       0x60 Drivers/STM32F4xx_HAL_Driver/Src/stm32f4xx_hal.o
                0x00000000080026d4                HAL_InitTick
 .text.HAL_IncTick
                0x0000000008002734       0x28 Drivers/STM32F4xx_HAL_Driver/Src/stm32f4xx_hal.o
                0x0000000008002734                HAL_IncTick
 .text.HAL_GetTick
                0x000000000800275c       0x18 Drivers/STM32F4xx_HAL_Driver/Src/stm32f4xx_hal.o
                0x000000000800275c                HAL_GetTick
 .text.HAL_Delay
                0x0000000008002774       0x44 Drivers/STM32F4xx_HAL_Driver/Src/stm32f4xx_hal.o
                0x0000000008002774                HAL_Delay
 .text.HAL_ADC_Init
                0x00000000080027b8       0x86 Drivers/STM32F4xx_HAL_Driver/Src/stm32f4xx_hal_adc.o
                0x00000000080027b8                HAL_ADC_Init
 *fill*         0x000000000800283e        0x2 
 .text.HAL_ADC_Start_DMA
                0x0000000008002840      0x1e4 Drivers/STM32F4xx_HAL_Driver/Src/stm32f4xx_hal_adc.o
                0x0000000008002840                HAL_ADC_Start_DMA
 .text.HAL_ADC_ErrorCallback
                0x0000000008002a24       0x14 Drivers/STM32F4xx_HAL_Driver/Src/stm32f4xx_hal_adc.o
                0x0000000008002a24                HAL_ADC_ErrorCallback
 .text.HAL_ADC_ConfigChannel
                0x0000000008002a38      0x264 Drivers/STM32F4xx_HAL_Driver/Src/stm32f4xx_hal_adc.o
                0x0000000008002a38                HAL_ADC_ConfigChannel
 .text.ADC_Init
                0x0000000008002c9c      0x1f8 Drivers/STM32F4xx_HAL_Driver/Src/stm32f4xx_hal_adc.o
 .text.ADC_DMAConvCplt
                0x0000000008002e94       0xba Drivers/STM32F4xx_HAL_Driver/Src/stm32f4xx_hal_adc.o
 .text.ADC_DMAHalfConvCplt
                0x0000000008002f4e       0x1c Drivers/STM32F4xx_HAL_Driver/Src/stm32f4xx_hal_adc.o
 .text.ADC_DMAError
                0x0000000008002f6a       0x2e Drivers/STM32F4xx_HAL_Driver/Src/stm32f4xx_hal_adc.o
 .text.__NVIC_SetPriorityGrouping
                0x0000000008002f98       0x48 Drivers/STM32F4xx_HAL_Driver/Src/stm32f4xx_hal_cortex.o
 .text.__NVIC_GetPriorityGrouping
                0x0000000008002fe0       0x1c Drivers/STM32F4xx_HAL_Driver/Src/stm32f4xx_hal_cortex.o
 .text.__NVIC_EnableIRQ
                0x0000000008002ffc       0x3c Drivers/STM32F4xx_HAL_Driver/Src/stm32f4xx_hal_cortex.o
 .text.__NVIC_SetPriority
                0x0000000008003038       0x54 Drivers/STM32F4xx_HAL_Driver/Src/stm32f4xx_hal_cortex.o
 .text.NVIC_EncodePriority
                0x000000000800308c       0x66 Drivers/STM32F4xx_HAL_Driver/Src/stm32f4xx_hal_cortex.o
 *fill*         0x00000000080030f2        0x2 
 .text.SysTick_Config
                0x00000000080030f4       0x44 Drivers/STM32F4xx_HAL_Driver/Src/stm32f4xx_hal_cortex.o
 .text.HAL_NVIC_SetPriorityGrouping
                0x0000000008003138       0x16 Drivers/STM32F4xx_HAL_Driver/Src/stm32f4xx_hal_cortex.o
                0x0000000008003138                HAL_NVIC_SetPriorityGrouping
 .text.HAL_NVIC_SetPriority
                0x000000000800314e       0x38 Drivers/STM32F4xx_HAL_Driver/Src/stm32f4xx_hal_cortex.o
                0x000000000800314e                HAL_NVIC_SetPriority
 .text.HAL_NVIC_EnableIRQ
                0x0000000008003186       0x1c Drivers/STM32F4xx_HAL_Driver/Src/stm32f4xx_hal_cortex.o
                0x0000000008003186                HAL_NVIC_EnableIRQ
 .text.HAL_SYSTICK_Config
                0x00000000080031a2       0x18 Drivers/STM32F4xx_HAL_Driver/Src/stm32f4xx_hal_cortex.o
                0x00000000080031a2                HAL_SYSTICK_Config
 .text.HAL_DAC_Init
                0x00000000080031ba       0x44 Drivers/STM32F4xx_HAL_Driver/Src/stm32f4xx_hal_dac.o
                0x00000000080031ba                HAL_DAC_Init
 *fill*         0x00000000080031fe        0x2 
 .text.HAL_DAC_Start_DMA
                0x0000000008003200      0x15c Drivers/STM32F4xx_HAL_Driver/Src/stm32f4xx_hal_dac.o
                0x0000000008003200                HAL_DAC_Start_DMA
 .text.HAL_DAC_Stop_DMA
                0x000000000800335c       0x82 Drivers/STM32F4xx_HAL_Driver/Src/stm32f4xx_hal_dac.o
                0x000000000800335c                HAL_DAC_Stop_DMA
 .text.HAL_DAC_ErrorCallbackCh1
                0x00000000080033de       0x14 Drivers/STM32F4xx_HAL_Driver/Src/stm32f4xx_hal_dac.o
                0x00000000080033de                HAL_DAC_ErrorCallbackCh1
 .text.HAL_DAC_ConfigChannel
                0x00000000080033f2       0x9a Drivers/STM32F4xx_HAL_Driver/Src/stm32f4xx_hal_dac.o
                0x00000000080033f2                HAL_DAC_ConfigChannel
 .text.DAC_DMAConvCpltCh1
                0x000000000800348c       0x22 Drivers/STM32F4xx_HAL_Driver/Src/stm32f4xx_hal_dac.o
 .text.DAC_DMAHalfConvCpltCh1
                0x00000000080034ae       0x1c Drivers/STM32F4xx_HAL_Driver/Src/stm32f4xx_hal_dac.o
 .text.DAC_DMAErrorCh1
                0x00000000080034ca       0x2e Drivers/STM32F4xx_HAL_Driver/Src/stm32f4xx_hal_dac.o
 .text.HAL_DACEx_ConvCpltCallbackCh2
                0x00000000080034f8       0x14 Drivers/STM32F4xx_HAL_Driver/Src/stm32f4xx_hal_dac_ex.o
                0x00000000080034f8                HAL_DACEx_ConvCpltCallbackCh2
 .text.HAL_DACEx_ConvHalfCpltCallbackCh2
                0x000000000800350c       0x14 Drivers/STM32F4xx_HAL_Driver/Src/stm32f4xx_hal_dac_ex.o
                0x000000000800350c                HAL_DACEx_ConvHalfCpltCallbackCh2
 .text.HAL_DACEx_ErrorCallbackCh2
                0x0000000008003520       0x14 Drivers/STM32F4xx_HAL_Driver/Src/stm32f4xx_hal_dac_ex.o
                0x0000000008003520                HAL_DACEx_ErrorCallbackCh2
 .text.DAC_DMAConvCpltCh2
                0x0000000008003534       0x22 Drivers/STM32F4xx_HAL_Driver/Src/stm32f4xx_hal_dac_ex.o
                0x0000000008003534                DAC_DMAConvCpltCh2
 .text.DAC_DMAHalfConvCpltCh2
                0x0000000008003556       0x1c Drivers/STM32F4xx_HAL_Driver/Src/stm32f4xx_hal_dac_ex.o
                0x0000000008003556                DAC_DMAHalfConvCpltCh2
 .text.DAC_DMAErrorCh2
                0x0000000008003572       0x2e Drivers/STM32F4xx_HAL_Driver/Src/stm32f4xx_hal_dac_ex.o
                0x0000000008003572                DAC_DMAErrorCh2
 .text.HAL_DMA_Init
                0x00000000080035a0      0x15c Drivers/STM32F4xx_HAL_Driver/Src/stm32f4xx_hal_dma.o
                0x00000000080035a0                HAL_DMA_Init
 .text.HAL_DMA_Start_IT
                0x00000000080036fc       0xb0 Drivers/STM32F4xx_HAL_Driver/Src/stm32f4xx_hal_dma.o
                0x00000000080036fc                HAL_DMA_Start_IT
 .text.HAL_DMA_Abort
                0x00000000080037ac       0xe0 Drivers/STM32F4xx_HAL_Driver/Src/stm32f4xx_hal_dma.o
                0x00000000080037ac                HAL_DMA_Abort
 .text.HAL_DMA_IRQHandler
                0x000000000800388c      0x314 Drivers/STM32F4xx_HAL_Driver/Src/stm32f4xx_hal_dma.o
                0x000000000800388c                HAL_DMA_IRQHandler
 .text.DMA_SetConfig
                0x0000000008003ba0       0x5c Drivers/STM32F4xx_HAL_Driver/Src/stm32f4xx_hal_dma.o
 .text.DMA_CalcBaseAndBitshift
                0x0000000008003bfc       0x6c Drivers/STM32F4xx_HAL_Driver/Src/stm32f4xx_hal_dma.o
 .text.DMA_CheckFifoParam
                0x0000000008003c68       0xf4 Drivers/STM32F4xx_HAL_Driver/Src/stm32f4xx_hal_dma.o
 .text.HAL_GPIO_Init
                0x0000000008003d5c      0x324 Drivers/STM32F4xx_HAL_Driver/Src/stm32f4xx_hal_gpio.o
                0x0000000008003d5c                HAL_GPIO_Init
 .text.HAL_GPIO_ReadPin
                0x0000000008004080       0x30 Drivers/STM32F4xx_HAL_Driver/Src/stm32f4xx_hal_gpio.o
                0x0000000008004080                HAL_GPIO_ReadPin
 .text.HAL_GPIO_WritePin
                0x00000000080040b0       0x32 Drivers/STM32F4xx_HAL_Driver/Src/stm32f4xx_hal_gpio.o
                0x00000000080040b0                HAL_GPIO_WritePin
 .text.HAL_GPIO_TogglePin
                0x00000000080040e2       0x36 Drivers/STM32F4xx_HAL_Driver/Src/stm32f4xx_hal_gpio.o
                0x00000000080040e2                HAL_GPIO_TogglePin
 .text.HAL_GPIO_EXTI_IRQHandler
                0x0000000008004118       0x30 Drivers/STM32F4xx_HAL_Driver/Src/stm32f4xx_hal_gpio.o
                0x0000000008004118                HAL_GPIO_EXTI_IRQHandler
 .text.HAL_RCC_ClockConfig
                0x0000000008004148      0x1cc Drivers/STM32F4xx_HAL_Driver/Src/stm32f4xx_hal_rcc.o
                0x0000000008004148                HAL_RCC_ClockConfig
 .text.HAL_RCC_GetHCLKFreq
                0x0000000008004314       0x18 Drivers/STM32F4xx_HAL_Driver/Src/stm32f4xx_hal_rcc.o
                0x0000000008004314                HAL_RCC_GetHCLKFreq
 .text.HAL_RCC_GetPCLK1Freq
                0x000000000800432c       0x28 Drivers/STM32F4xx_HAL_Driver/Src/stm32f4xx_hal_rcc.o
                0x000000000800432c                HAL_RCC_GetPCLK1Freq
 .text.HAL_RCC_GetPCLK2Freq
                0x0000000008004354       0x28 Drivers/STM32F4xx_HAL_Driver/Src/stm32f4xx_hal_rcc.o
                0x0000000008004354                HAL_RCC_GetPCLK2Freq
 .text.HAL_RCC_GetSysClockFreq
                0x000000000800437c      0x340 Drivers/STM32F4xx_HAL_Driver/Src/stm32f4xx_hal_rcc_ex.o
                0x000000000800437c                HAL_RCC_GetSysClockFreq
 .text.HAL_RCC_OscConfig
                0x00000000080046bc      0x4b4 Drivers/STM32F4xx_HAL_Driver/Src/stm32f4xx_hal_rcc_ex.o
                0x00000000080046bc                HAL_RCC_OscConfig
 .text.HAL_SPI_Init
                0x0000000008004b70       0xc8 Drivers/STM32F4xx_HAL_Driver/Src/stm32f4xx_hal_spi.o
                0x0000000008004b70                HAL_SPI_Init
 .text.HAL_SPI_Transmit
                0x0000000008004c38      0x268 Drivers/STM32F4xx_HAL_Driver/Src/stm32f4xx_hal_spi.o
                0x0000000008004c38                HAL_SPI_Transmit
 .text.HAL_SPI_TransmitReceive
                0x0000000008004ea0      0x344 Drivers/STM32F4xx_HAL_Driver/Src/stm32f4xx_hal_spi.o
                0x0000000008004ea0                HAL_SPI_TransmitReceive
 .text.SPI_WaitFlagStateUntilTimeout
                0x00000000080051e4       0xd4 Drivers/STM32F4xx_HAL_Driver/Src/stm32f4xx_hal_spi.o
 .text.SPI_EndRxTxTransaction
                0x00000000080052b8       0x84 Drivers/STM32F4xx_HAL_Driver/Src/stm32f4xx_hal_spi.o
 .text.HAL_TIM_Base_Init
                0x000000000800533c       0x56 Drivers/STM32F4xx_HAL_Driver/Src/stm32f4xx_hal_tim.o
                0x000000000800533c                HAL_TIM_Base_Init
 .text.HAL_TIM_Base_Start
                0x0000000008005392       0x48 Drivers/STM32F4xx_HAL_Driver/Src/stm32f4xx_hal_tim.o
                0x0000000008005392                HAL_TIM_Base_Start
 .text.HAL_TIM_IRQHandler
                0x00000000080053da      0x210 Drivers/STM32F4xx_HAL_Driver/Src/stm32f4xx_hal_tim.o
                0x00000000080053da                HAL_TIM_IRQHandler
 .text.HAL_TIM_ConfigClockSource
                0x00000000080055ea      0x16e Drivers/STM32F4xx_HAL_Driver/Src/stm32f4xx_hal_tim.o
                0x00000000080055ea                HAL_TIM_ConfigClockSource
 .text.HAL_TIM_OC_DelayElapsedCallback
                0x0000000008005758       0x14 Drivers/STM32F4xx_HAL_Driver/Src/stm32f4xx_hal_tim.o
                0x0000000008005758                HAL_TIM_OC_DelayElapsedCallback
 .text.HAL_TIM_IC_CaptureCallback
                0x000000000800576c       0x14 Drivers/STM32F4xx_HAL_Driver/Src/stm32f4xx_hal_tim.o
                0x000000000800576c                HAL_TIM_IC_CaptureCallback
 .text.HAL_TIM_PWM_PulseFinishedCallback
                0x0000000008005780       0x14 Drivers/STM32F4xx_HAL_Driver/Src/stm32f4xx_hal_tim.o
                0x0000000008005780                HAL_TIM_PWM_PulseFinishedCallback
 .text.HAL_TIM_TriggerCallback
                0x0000000008005794       0x14 Drivers/STM32F4xx_HAL_Driver/Src/stm32f4xx_hal_tim.o
                0x0000000008005794                HAL_TIM_TriggerCallback
 .text.TIM_Base_SetConfig
                0x00000000080057a8      0x140 Drivers/STM32F4xx_HAL_Driver/Src/stm32f4xx_hal_tim.o
                0x00000000080057a8                TIM_Base_SetConfig
 .text.TIM_TI1_ConfigInputStage
                0x00000000080058e8       0x5e Drivers/STM32F4xx_HAL_Driver/Src/stm32f4xx_hal_tim.o
 .text.TIM_TI2_ConfigInputStage
                0x0000000008005946       0x60 Drivers/STM32F4xx_HAL_Driver/Src/stm32f4xx_hal_tim.o
 .text.TIM_ITRx_SetConfig
                0x00000000080059a6       0x36 Drivers/STM32F4xx_HAL_Driver/Src/stm32f4xx_hal_tim.o
 .text.TIM_ETR_SetConfig
                0x00000000080059dc       0x40 Drivers/STM32F4xx_HAL_Driver/Src/stm32f4xx_hal_tim.o
                0x00000000080059dc                TIM_ETR_SetConfig
 .text.HAL_TIMEx_MasterConfigSynchronization
                0x0000000008005a1c       0xf8 Drivers/STM32F4xx_HAL_Driver/Src/stm32f4xx_hal_tim_ex.o
                0x0000000008005a1c                HAL_TIMEx_MasterConfigSynchronization
 .text.HAL_TIMEx_CommutCallback
                0x0000000008005b14       0x14 Drivers/STM32F4xx_HAL_Driver/Src/stm32f4xx_hal_tim_ex.o
                0x0000000008005b14                HAL_TIMEx_CommutCallback
 .text.HAL_TIMEx_BreakCallback
                0x0000000008005b28       0x14 Drivers/STM32F4xx_HAL_Driver/Src/stm32f4xx_hal_tim_ex.o
                0x0000000008005b28                HAL_TIMEx_BreakCallback
 .text.HAL_UART_Init
                0x0000000008005b3c       0x9a Drivers/STM32F4xx_HAL_Driver/Src/stm32f4xx_hal_uart.o
                0x0000000008005b3c                HAL_UART_Init
 .text.HAL_UART_Transmit
                0x0000000008005bd6      0x132 Drivers/STM32F4xx_HAL_Driver/Src/stm32f4xx_hal_uart.o
                0x0000000008005bd6                HAL_UART_Transmit
 .text.HAL_UART_Transmit_DMA
                0x0000000008005d08       0xd8 Drivers/STM32F4xx_HAL_Driver/Src/stm32f4xx_hal_uart.o
                0x0000000008005d08                HAL_UART_Transmit_DMA
 .text.HAL_UART_TxCpltCallback
                0x0000000008005de0       0x14 Drivers/STM32F4xx_HAL_Driver/Src/stm32f4xx_hal_uart.o
                0x0000000008005de0                HAL_UART_TxCpltCallback
 .text.HAL_UART_TxHalfCpltCallback
                0x0000000008005df4       0x14 Drivers/STM32F4xx_HAL_Driver/Src/stm32f4xx_hal_uart.o
                0x0000000008005df4                HAL_UART_TxHalfCpltCallback
 .text.HAL_UART_ErrorCallback
                0x0000000008005e08       0x14 Drivers/STM32F4xx_HAL_Driver/Src/stm32f4xx_hal_uart.o
                0x0000000008005e08                HAL_UART_ErrorCallback
 .text.UART_DMATransmitCplt
                0x0000000008005e1c       0x52 Drivers/STM32F4xx_HAL_Driver/Src/stm32f4xx_hal_uart.o
 .text.UART_DMATxHalfCplt
                0x0000000008005e6e       0x1c Drivers/STM32F4xx_HAL_Driver/Src/stm32f4xx_hal_uart.o
 .text.UART_DMAError
                0x0000000008005e8a       0x94 Drivers/STM32F4xx_HAL_Driver/Src/stm32f4xx_hal_uart.o
 .text.UART_WaitOnFlagUntilTimeout
                0x0000000008005f1e       0x94 Drivers/STM32F4xx_HAL_Driver/Src/stm32f4xx_hal_uart.o
 .text.UART_EndTxTransfer
                0x0000000008005fb2       0x2c Drivers/STM32F4xx_HAL_Driver/Src/stm32f4xx_hal_uart.o
 .text.UART_EndRxTransfer
                0x0000000008005fde       0x3c Drivers/STM32F4xx_HAL_Driver/Src/stm32f4xx_hal_uart.o
 *fill*         0x000000000800601a        0x2 
 .text.UART_SetConfig
                0x000000000800601c      0x6f8 Drivers/STM32F4xx_HAL_Driver/Src/stm32f4xx_hal_uart.o
 .text.MX_FATFS_Init
                0x0000000008006714       0x24 FATFS/App/fatfs.o
                0x0000000008006714                MX_FATFS_Init
 .text.get_fattime
                0x0000000008006738       0x10 FATFS/App/fatfs.o
                0x0000000008006738                get_fattime
 .text.USER_initialize
                0x0000000008006748       0x34 FATFS/Target/user_diskio.o
                0x0000000008006748                USER_initialize
 .text.USER_status
                0x000000000800677c       0x28 FATFS/Target/user_diskio.o
                0x000000000800677c                USER_status
 .text.USER_read
                0x00000000080067a4       0x32 FATFS/Target/user_diskio.o
                0x00000000080067a4                USER_read
 .text.USER_write
                0x00000000080067d6       0x32 FATFS/Target/user_diskio.o
                0x00000000080067d6                USER_write
 .text.USER_ioctl
                0x0000000008006808      0x150 FATFS/Target/user_diskio.o
                0x0000000008006808                USER_ioctl
 .text.disk_status
                0x0000000008006958       0x34 Middlewares/Third_Party/FatFs/src/diskio.o
                0x0000000008006958                disk_status
 .text.disk_initialize
                0x000000000800698c       0x4c Middlewares/Third_Party/FatFs/src/diskio.o
                0x000000000800698c                disk_initialize
 .text.disk_read
                0x00000000080069d8       0x40 Middlewares/Third_Party/FatFs/src/diskio.o
                0x00000000080069d8                disk_read
 .text.disk_write
                0x0000000008006a18       0x40 Middlewares/Third_Party/FatFs/src/diskio.o
                0x0000000008006a18                disk_write
 .text.disk_ioctl
                0x0000000008006a58       0x3c Middlewares/Third_Party/FatFs/src/diskio.o
                0x0000000008006a58                disk_ioctl
 .text.ld_word  0x0000000008006a94       0x30 Middlewares/Third_Party/FatFs/src/ff.o
 .text.ld_dword
                0x0000000008006ac4       0x46 Middlewares/Third_Party/FatFs/src/ff.o
 .text.st_word  0x0000000008006b0a       0x36 Middlewares/Third_Party/FatFs/src/ff.o
 .text.st_dword
                0x0000000008006b40       0x58 Middlewares/Third_Party/FatFs/src/ff.o
 .text.mem_cpy  0x0000000008006b98       0x42 Middlewares/Third_Party/FatFs/src/ff.o
 .text.mem_set  0x0000000008006bda       0x34 Middlewares/Third_Party/FatFs/src/ff.o
 .text.mem_cmp  0x0000000008006c0e       0x4e Middlewares/Third_Party/FatFs/src/ff.o
 .text.chk_chr  0x0000000008006c5c       0x36 Middlewares/Third_Party/FatFs/src/ff.o
 *fill*         0x0000000008006c92        0x2 
 .text.chk_lock
                0x0000000008006c94       0xb8 Middlewares/Third_Party/FatFs/src/ff.o
 .text.enq_lock
                0x0000000008006d4c       0x44 Middlewares/Third_Party/FatFs/src/ff.o
 .text.inc_lock
                0x0000000008006d90      0x11c Middlewares/Third_Party/FatFs/src/ff.o
 .text.dec_lock
                0x0000000008006eac       0x78 Middlewares/Third_Party/FatFs/src/ff.o
 .text.clear_lock
                0x0000000008006f24       0x48 Middlewares/Third_Party/FatFs/src/ff.o
 .text.sync_window
                0x0000000008006f6c       0x88 Middlewares/Third_Party/FatFs/src/ff.o
 .text.move_window
                0x0000000008006ff4       0x5a Middlewares/Third_Party/FatFs/src/ff.o
 *fill*         0x000000000800704e        0x2 
 .text.sync_fs  0x0000000008007050       0xdc Middlewares/Third_Party/FatFs/src/ff.o
 .text.clust2sect
                0x000000000800712c       0x3e Middlewares/Third_Party/FatFs/src/ff.o
 .text.get_fat  0x000000000800716a      0x14a Middlewares/Third_Party/FatFs/src/ff.o
 .text.put_fat  0x00000000080072b4      0x1ce Middlewares/Third_Party/FatFs/src/ff.o
 .text.remove_chain
                0x0000000008007482       0xca Middlewares/Third_Party/FatFs/src/ff.o
 .text.create_chain
                0x000000000800754c      0x130 Middlewares/Third_Party/FatFs/src/ff.o
 .text.clmt_clust
                0x000000000800767c       0x68 Middlewares/Third_Party/FatFs/src/ff.o
 .text.dir_sdi  0x00000000080076e4       0xf6 Middlewares/Third_Party/FatFs/src/ff.o
 .text.dir_next
                0x00000000080077da      0x18a Middlewares/Third_Party/FatFs/src/ff.o
 .text.dir_alloc
                0x0000000008007964       0x8e Middlewares/Third_Party/FatFs/src/ff.o
 .text.ld_clust
                0x00000000080079f2       0x3e Middlewares/Third_Party/FatFs/src/ff.o
 .text.st_clust
                0x0000000008007a30       0x40 Middlewares/Third_Party/FatFs/src/ff.o
 .text.dir_find
                0x0000000008007a70       0xaa Middlewares/Third_Party/FatFs/src/ff.o
 .text.dir_register
                0x0000000008007b1a       0x64 Middlewares/Third_Party/FatFs/src/ff.o
 *fill*         0x0000000008007b7e        0x2 
 .text.create_name
                0x0000000008007b80      0x128 Middlewares/Third_Party/FatFs/src/ff.o
 .text.follow_path
                0x0000000008007ca8       0xe2 Middlewares/Third_Party/FatFs/src/ff.o
 .text.get_ldnumber
                0x0000000008007d8a       0x88 Middlewares/Third_Party/FatFs/src/ff.o
 *fill*         0x0000000008007e12        0x2 
 .text.check_fs
                0x0000000008007e14       0xac Middlewares/Third_Party/FatFs/src/ff.o
 .text.find_volume
                0x0000000008007ec0      0x498 Middlewares/Third_Party/FatFs/src/ff.o
 .text.validate
                0x0000000008008358       0x6a Middlewares/Third_Party/FatFs/src/ff.o
 *fill*         0x00000000080083c2        0x2 
 .text.f_mount  0x00000000080083c4       0x8c Middlewares/Third_Party/FatFs/src/ff.o
                0x00000000080083c4                f_mount
 .text.f_open   0x0000000008008450      0x37c Middlewares/Third_Party/FatFs/src/ff.o
                0x0000000008008450                f_open
 .text.f_write  0x00000000080087cc      0x2ea Middlewares/Third_Party/FatFs/src/ff.o
                0x00000000080087cc                f_write
 .text.f_sync   0x0000000008008ab6       0xfc Middlewares/Third_Party/FatFs/src/ff.o
                0x0000000008008ab6                f_sync
 .text.f_close  0x0000000008008bb2       0x54 Middlewares/Third_Party/FatFs/src/ff.o
                0x0000000008008bb2                f_close
 *fill*         0x0000000008008c06        0x2 
 .text.FATFS_LinkDriverEx
                0x0000000008008c08       0x98 Middlewares/Third_Party/FatFs/src/ff_gen_drv.o
                0x0000000008008c08                FATFS_LinkDriverEx
 .text.FATFS_LinkDriver
                0x0000000008008ca0       0x1e Middlewares/Third_Party/FatFs/src/ff_gen_drv.o
                0x0000000008008ca0                FATFS_LinkDriver
 *fill*         0x0000000008008cbe        0x2 
 .text.__libc_init_array
                0x0000000008008cc0       0x48 /Applications/STM32CubeIDE.app/Contents/Eclipse/plugins/com.st.stm32cube.ide.mcu.externaltools.gnu-tools-for-stm32.7-2018-q2-update.macos64_1.0.0.201904181610/tools/bin/../lib/gcc/arm-none-eabi/7.3.1/../../../../arm-none-eabi/lib/thumb/v7e-m/fpv4-sp/hard/libc_nano.a(lib_a-init.o)
                0x0000000008008cc0                __libc_init_array
 .text.__itoa   0x0000000008008d08       0x30 /Applications/STM32CubeIDE.app/Contents/Eclipse/plugins/com.st.stm32cube.ide.mcu.externaltools.gnu-tools-for-stm32.7-2018-q2-update.macos64_1.0.0.201904181610/tools/bin/../lib/gcc/arm-none-eabi/7.3.1/../../../../arm-none-eabi/lib/thumb/v7e-m/fpv4-sp/hard/libc_nano.a(lib_a-itoa.o)
                0x0000000008008d08                __itoa
 .text.itoa     0x0000000008008d38        0x4 /Applications/STM32CubeIDE.app/Contents/Eclipse/plugins/com.st.stm32cube.ide.mcu.externaltools.gnu-tools-for-stm32.7-2018-q2-update.macos64_1.0.0.201904181610/tools/bin/../lib/gcc/arm-none-eabi/7.3.1/../../../../arm-none-eabi/lib/thumb/v7e-m/fpv4-sp/hard/libc_nano.a(lib_a-itoa.o)
                0x0000000008008d38                itoa
 .text.memset   0x0000000008008d3c       0x10 /Applications/STM32CubeIDE.app/Contents/Eclipse/plugins/com.st.stm32cube.ide.mcu.externaltools.gnu-tools-for-stm32.7-2018-q2-update.macos64_1.0.0.201904181610/tools/bin/../lib/gcc/arm-none-eabi/7.3.1/../../../../arm-none-eabi/lib/thumb/v7e-m/fpv4-sp/hard/libc_nano.a(lib_a-memset.o)
                0x0000000008008d3c                memset
 .text.__utoa   0x0000000008008d4c       0x7c /Applications/STM32CubeIDE.app/Contents/Eclipse/plugins/com.st.stm32cube.ide.mcu.externaltools.gnu-tools-for-stm32.7-2018-q2-update.macos64_1.0.0.201904181610/tools/bin/../lib/gcc/arm-none-eabi/7.3.1/../../../../arm-none-eabi/lib/thumb/v7e-m/fpv4-sp/hard/libc_nano.a(lib_a-utoa.o)
                0x0000000008008d4c                __utoa
 .text.sinf     0x0000000008008dc8       0x84 /Applications/STM32CubeIDE.app/Contents/Eclipse/plugins/com.st.stm32cube.ide.mcu.externaltools.gnu-tools-for-stm32.7-2018-q2-update.macos64_1.0.0.201904181610/tools/bin/../lib/gcc/arm-none-eabi/7.3.1/../../../../arm-none-eabi/lib/thumb/v7e-m/fpv4-sp/hard/libm.a(lib_a-sf_sin.o)
                0x0000000008008dc8                sinf
 .text.__ieee754_rem_pio2f
                0x0000000008008e4c      0x258 /Applications/STM32CubeIDE.app/Contents/Eclipse/plugins/com.st.stm32cube.ide.mcu.externaltools.gnu-tools-for-stm32.7-2018-q2-update.macos64_1.0.0.201904181610/tools/bin/../lib/gcc/arm-none-eabi/7.3.1/../../../../arm-none-eabi/lib/thumb/v7e-m/fpv4-sp/hard/libm.a(lib_a-ef_rem_pio2.o)
                0x0000000008008e4c                __ieee754_rem_pio2f
 .text.__kernel_cosf
                0x00000000080090a4       0xbc /Applications/STM32CubeIDE.app/Contents/Eclipse/plugins/com.st.stm32cube.ide.mcu.externaltools.gnu-tools-for-stm32.7-2018-q2-update.macos64_1.0.0.201904181610/tools/bin/../lib/gcc/arm-none-eabi/7.3.1/../../../../arm-none-eabi/lib/thumb/v7e-m/fpv4-sp/hard/libm.a(lib_a-kf_cos.o)
                0x00000000080090a4                __kernel_cosf
 .text.__kernel_rem_pio2f
                0x0000000008009160      0x504 /Applications/STM32CubeIDE.app/Contents/Eclipse/plugins/com.st.stm32cube.ide.mcu.externaltools.gnu-tools-for-stm32.7-2018-q2-update.macos64_1.0.0.201904181610/tools/bin/../lib/gcc/arm-none-eabi/7.3.1/../../../../arm-none-eabi/lib/thumb/v7e-m/fpv4-sp/hard/libm.a(lib_a-kf_rem_pio2.o)
                0x0000000008009160                __kernel_rem_pio2f
 .text.__kernel_sinf
                0x0000000008009664       0x90 /Applications/STM32CubeIDE.app/Contents/Eclipse/plugins/com.st.stm32cube.ide.mcu.externaltools.gnu-tools-for-stm32.7-2018-q2-update.macos64_1.0.0.201904181610/tools/bin/../lib/gcc/arm-none-eabi/7.3.1/../../../../arm-none-eabi/lib/thumb/v7e-m/fpv4-sp/hard/libm.a(lib_a-kf_sin.o)
                0x0000000008009664                __kernel_sinf
 .text.fabsf    0x00000000080096f4        0xe /Applications/STM32CubeIDE.app/Contents/Eclipse/plugins/com.st.stm32cube.ide.mcu.externaltools.gnu-tools-for-stm32.7-2018-q2-update.macos64_1.0.0.201904181610/tools/bin/../lib/gcc/arm-none-eabi/7.3.1/../../../../arm-none-eabi/lib/thumb/v7e-m/fpv4-sp/hard/libm.a(lib_a-sf_fabs.o)
                0x00000000080096f4                fabsf
 *fill*         0x0000000008009702        0x2 
 .text.floorf   0x0000000008009704       0x84 /Applications/STM32CubeIDE.app/Contents/Eclipse/plugins/com.st.stm32cube.ide.mcu.externaltools.gnu-tools-for-stm32.7-2018-q2-update.macos64_1.0.0.201904181610/tools/bin/../lib/gcc/arm-none-eabi/7.3.1/../../../../arm-none-eabi/lib/thumb/v7e-m/fpv4-sp/hard/libm.a(lib_a-sf_floor.o)
                0x0000000008009704                floorf
 .text.scalbnf  0x0000000008009788       0xc0 /Applications/STM32CubeIDE.app/Contents/Eclipse/plugins/com.st.stm32cube.ide.mcu.externaltools.gnu-tools-for-stm32.7-2018-q2-update.macos64_1.0.0.201904181610/tools/bin/../lib/gcc/arm-none-eabi/7.3.1/../../../../arm-none-eabi/lib/thumb/v7e-m/fpv4-sp/hard/libm.a(lib_a-sf_scalbn.o)
                0x0000000008009788                scalbnf
 .text.copysignf
                0x0000000008009848       0x18 /Applications/STM32CubeIDE.app/Contents/Eclipse/plugins/com.st.stm32cube.ide.mcu.externaltools.gnu-tools-for-stm32.7-2018-q2-update.macos64_1.0.0.201904181610/tools/bin/../lib/gcc/arm-none-eabi/7.3.1/../../../../arm-none-eabi/lib/thumb/v7e-m/fpv4-sp/hard/libm.a(lib_a-sf_copysign.o)
                0x0000000008009848                copysignf
 *(.glue_7)
 .glue_7        0x0000000008009860        0x0 linker stubs
 *(.glue_7t)
 .glue_7t       0x0000000008009860        0x0 linker stubs
 *(.eh_frame)
 .eh_frame      0x0000000008009860        0x0 /Applications/STM32CubeIDE.app/Contents/Eclipse/plugins/com.st.stm32cube.ide.mcu.externaltools.gnu-tools-for-stm32.7-2018-q2-update.macos64_1.0.0.201904181610/tools/bin/../lib/gcc/arm-none-eabi/7.3.1/thumb/v7e-m/fpv4-sp/hard/crtbegin.o
 *(.init)
 .init          0x0000000008009860        0x4 /Applications/STM32CubeIDE.app/Contents/Eclipse/plugins/com.st.stm32cube.ide.mcu.externaltools.gnu-tools-for-stm32.7-2018-q2-update.macos64_1.0.0.201904181610/tools/bin/../lib/gcc/arm-none-eabi/7.3.1/thumb/v7e-m/fpv4-sp/hard/crti.o
                0x0000000008009860                _init
 .init          0x0000000008009864        0x8 /Applications/STM32CubeIDE.app/Contents/Eclipse/plugins/com.st.stm32cube.ide.mcu.externaltools.gnu-tools-for-stm32.7-2018-q2-update.macos64_1.0.0.201904181610/tools/bin/../lib/gcc/arm-none-eabi/7.3.1/thumb/v7e-m/fpv4-sp/hard/crtn.o
 *(.fini)
 .fini          0x000000000800986c        0x4 /Applications/STM32CubeIDE.app/Contents/Eclipse/plugins/com.st.stm32cube.ide.mcu.externaltools.gnu-tools-for-stm32.7-2018-q2-update.macos64_1.0.0.201904181610/tools/bin/../lib/gcc/arm-none-eabi/7.3.1/thumb/v7e-m/fpv4-sp/hard/crti.o
                0x000000000800986c                _fini
 .fini          0x0000000008009870        0x8 /Applications/STM32CubeIDE.app/Contents/Eclipse/plugins/com.st.stm32cube.ide.mcu.externaltools.gnu-tools-for-stm32.7-2018-q2-update.macos64_1.0.0.201904181610/tools/bin/../lib/gcc/arm-none-eabi/7.3.1/thumb/v7e-m/fpv4-sp/hard/crtn.o
                0x0000000008009878                . = ALIGN (0x4)
                0x0000000008009878                _etext = .

.vfp11_veneer   0x0000000008009878        0x0
 .vfp11_veneer  0x0000000008009878        0x0 linker stubs

.v4_bx          0x0000000008009878        0x0
 .v4_bx         0x0000000008009878        0x0 linker stubs

.iplt           0x0000000008009878        0x0
 .iplt          0x0000000008009878        0x0 /Applications/STM32CubeIDE.app/Contents/Eclipse/plugins/com.st.stm32cube.ide.mcu.externaltools.gnu-tools-for-stm32.7-2018-q2-update.macos64_1.0.0.201904181610/tools/bin/../lib/gcc/arm-none-eabi/7.3.1/thumb/v7e-m/fpv4-sp/hard/crtbegin.o

.rodata         0x0000000008009878      0x4fc
                0x0000000008009878                . = ALIGN (0x4)
 *(.rodata)
 .rodata        0x0000000008009878       0x1e Core/Src/main.o
 *fill*         0x0000000008009896        0x2 
 .rodata        0x0000000008009898       0x44 Middlewares/Third_Party/FatFs/src/ff.o
 *(.rodata*)
 .rodata.AHBPrescTable
                0x00000000080098dc       0x10 Core/Src/system_stm32f4xx.o
                0x00000000080098dc                AHBPrescTable
 .rodata.APBPrescTable
                0x00000000080098ec        0x8 Core/Src/system_stm32f4xx.o
                0x00000000080098ec                APBPrescTable
 .rodata.flagBitshiftOffset.8528
                0x00000000080098f4        0x8 Drivers/STM32F4xx_HAL_Driver/Src/stm32f4xx_hal_dma.o
 .rodata.ExCvt  0x00000000080098fc       0x80 Middlewares/Third_Party/FatFs/src/ff.o
 .rodata.__utoa.str1.1
                0x000000000800997c       0x25 /Applications/STM32CubeIDE.app/Contents/Eclipse/plugins/com.st.stm32cube.ide.mcu.externaltools.gnu-tools-for-stm32.7-2018-q2-update.macos64_1.0.0.201904181610/tools/bin/../lib/gcc/arm-none-eabi/7.3.1/../../../../arm-none-eabi/lib/thumb/v7e-m/fpv4-sp/hard/libc_nano.a(lib_a-utoa.o)
 *fill*         0x00000000080099a1        0x3 
 .rodata.npio2_hw
                0x00000000080099a4       0x80 /Applications/STM32CubeIDE.app/Contents/Eclipse/plugins/com.st.stm32cube.ide.mcu.externaltools.gnu-tools-for-stm32.7-2018-q2-update.macos64_1.0.0.201904181610/tools/bin/../lib/gcc/arm-none-eabi/7.3.1/../../../../arm-none-eabi/lib/thumb/v7e-m/fpv4-sp/hard/libm.a(lib_a-ef_rem_pio2.o)
 .rodata.two_over_pi
                0x0000000008009a24      0x318 /Applications/STM32CubeIDE.app/Contents/Eclipse/plugins/com.st.stm32cube.ide.mcu.externaltools.gnu-tools-for-stm32.7-2018-q2-update.macos64_1.0.0.201904181610/tools/bin/../lib/gcc/arm-none-eabi/7.3.1/../../../../arm-none-eabi/lib/thumb/v7e-m/fpv4-sp/hard/libm.a(lib_a-ef_rem_pio2.o)
 .rodata.PIo2   0x0000000008009d3c       0x2c /Applications/STM32CubeIDE.app/Contents/Eclipse/plugins/com.st.stm32cube.ide.mcu.externaltools.gnu-tools-for-stm32.7-2018-q2-update.macos64_1.0.0.201904181610/tools/bin/../lib/gcc/arm-none-eabi/7.3.1/../../../../arm-none-eabi/lib/thumb/v7e-m/fpv4-sp/hard/libm.a(lib_a-kf_rem_pio2.o)
 .rodata.init_jk
                0x0000000008009d68        0xc /Applications/STM32CubeIDE.app/Contents/Eclipse/plugins/com.st.stm32cube.ide.mcu.externaltools.gnu-tools-for-stm32.7-2018-q2-update.macos64_1.0.0.201904181610/tools/bin/../lib/gcc/arm-none-eabi/7.3.1/../../../../arm-none-eabi/lib/thumb/v7e-m/fpv4-sp/hard/libm.a(lib_a-kf_rem_pio2.o)
                0x0000000008009d74                . = ALIGN (0x4)

.ARM.extab      0x0000000008009d74        0x0
                0x0000000008009d74                . = ALIGN (0x4)
 *(.ARM.extab* .gnu.linkonce.armextab.*)
                0x0000000008009d74                . = ALIGN (0x4)

.ARM            0x0000000008009d74        0x8
                0x0000000008009d74                . = ALIGN (0x4)
                0x0000000008009d74                __exidx_start = .
 *(.ARM.exidx*)
 .ARM.exidx     0x0000000008009d74        0x8 /Applications/STM32CubeIDE.app/Contents/Eclipse/plugins/com.st.stm32cube.ide.mcu.externaltools.gnu-tools-for-stm32.7-2018-q2-update.macos64_1.0.0.201904181610/tools/bin/../lib/gcc/arm-none-eabi/7.3.1/thumb/v7e-m/fpv4-sp/hard/libgcc.a(_udivmoddi4.o)
                0x0000000008009d7c                __exidx_end = .
                0x0000000008009d7c                . = ALIGN (0x4)

.rel.dyn        0x0000000008009d7c        0x0
 .rel.iplt      0x0000000008009d7c        0x0 /Applications/STM32CubeIDE.app/Contents/Eclipse/plugins/com.st.stm32cube.ide.mcu.externaltools.gnu-tools-for-stm32.7-2018-q2-update.macos64_1.0.0.201904181610/tools/bin/../lib/gcc/arm-none-eabi/7.3.1/thumb/v7e-m/fpv4-sp/hard/crtbegin.o

.preinit_array  0x0000000008009d7c        0x0
                0x0000000008009d7c                . = ALIGN (0x4)
                0x0000000008009d7c                PROVIDE (__preinit_array_start = .)
 *(.preinit_array*)
                0x0000000008009d7c                PROVIDE (__preinit_array_end = .)
                0x0000000008009d7c                . = ALIGN (0x4)

.init_array     0x0000000008009d7c        0x4
                0x0000000008009d7c                . = ALIGN (0x4)
                0x0000000008009d7c                PROVIDE (__init_array_start = .)
 *(SORT_BY_NAME(.init_array.*))
 *(.init_array*)
 .init_array    0x0000000008009d7c        0x4 /Applications/STM32CubeIDE.app/Contents/Eclipse/plugins/com.st.stm32cube.ide.mcu.externaltools.gnu-tools-for-stm32.7-2018-q2-update.macos64_1.0.0.201904181610/tools/bin/../lib/gcc/arm-none-eabi/7.3.1/thumb/v7e-m/fpv4-sp/hard/crtbegin.o
                0x0000000008009d80                PROVIDE (__init_array_end = .)
                0x0000000008009d80                . = ALIGN (0x4)

.fini_array     0x0000000008009d80        0x4
                0x0000000008009d80                . = ALIGN (0x4)
                [!provide]                        PROVIDE (__fini_array_start = .)
 *(SORT_BY_NAME(.fini_array.*))
 *(.fini_array*)
 .fini_array    0x0000000008009d80        0x4 /Applications/STM32CubeIDE.app/Contents/Eclipse/plugins/com.st.stm32cube.ide.mcu.externaltools.gnu-tools-for-stm32.7-2018-q2-update.macos64_1.0.0.201904181610/tools/bin/../lib/gcc/arm-none-eabi/7.3.1/thumb/v7e-m/fpv4-sp/hard/crtbegin.o
                [!provide]                        PROVIDE (__fini_array_end = .)
                0x0000000008009d84                . = ALIGN (0x4)
                0x0000000008009d84                _sidata = LOADADDR (.data)

.data           0x0000000020000000       0x60 load address 0x0000000008009d84
                0x0000000020000000                . = ALIGN (0x4)
                0x0000000020000000                _sdata = .
 *(.data)
 *(.data*)
 .data.BUTTON_DEBOUNCE_DELAY
                0x0000000020000000        0x4 Core/Src/main.o
                0x0000000020000000                BUTTON_DEBOUNCE_DELAY
 .data.LED_DELAY_TIME
                0x0000000020000004        0x4 Core/Src/main.o
                0x0000000020000004                LED_DELAY_TIME
 .data.REC_DELAY_TIME
                0x0000000020000008        0x4 Core/Src/main.o
                0x0000000020000008                REC_DELAY_TIME
 .data.PLAY_DELAY_TIME
                0x000000002000000c        0x4 Core/Src/main.o
                0x000000002000000c                PLAY_DELAY_TIME
 .data.PLAY_SLOT1
                0x0000000020000010        0x2 Core/Src/main.o
                0x0000000020000010                PLAY_SLOT1
 .data.PLAY_SLOT2
                0x0000000020000012        0x2 Core/Src/main.o
                0x0000000020000012                PLAY_SLOT2
 .data.PLAY_SLOT3
                0x0000000020000014        0x2 Core/Src/main.o
                0x0000000020000014                PLAY_SLOT3
 *fill*         0x0000000020000016        0x2 
 .data.Stop_data
                0x0000000020000018        0xa Core/Src/main.o
                0x0000000020000018                Stop_data
 *fill*         0x0000000020000022        0x2 
 .data.Record_data
                0x0000000020000024        0x9 Core/Src/main.o
                0x0000000020000024                Record_data
 *fill*         0x000000002000002d        0x3 
 .data.Playback_data
                0x0000000020000030        0x9 Core/Src/main.o
                0x0000000020000030                Playback_data
 .data.wavetype
                0x0000000020000039        0x1 Core/Src/main.o
                0x0000000020000039                wavetype
 *fill*         0x000000002000003a        0x2 
 .data.average  0x000000002000003c        0x4 Core/Src/main.o
                0x000000002000003c                average
 .data.SystemCoreClock
                0x0000000020000040        0x4 Core/Src/system_stm32f4xx.o
                0x0000000020000040                SystemCoreClock
 .data.uwTickPrio
                0x0000000020000044        0x4 Drivers/STM32F4xx_HAL_Driver/Src/stm32f4xx_hal.o
                0x0000000020000044                uwTickPrio
 .data.uwTickFreq
                0x0000000020000048        0x1 Drivers/STM32F4xx_HAL_Driver/Src/stm32f4xx_hal.o
                0x0000000020000048                uwTickFreq
 .data.Stat     0x0000000020000049        0x1 FATFS/Target/user_diskio.o
 *fill*         0x000000002000004a        0x2 
 .data.USER_Driver
                0x000000002000004c       0x14 FATFS/Target/user_diskio.o
                0x000000002000004c                USER_Driver
                0x0000000020000060                . = ALIGN (0x4)
                0x0000000020000060                _edata = .

.igot.plt       0x0000000020000060        0x0 load address 0x0000000008009de4
 .igot.plt      0x0000000020000060        0x0 /Applications/STM32CubeIDE.app/Contents/Eclipse/plugins/com.st.stm32cube.ide.mcu.externaltools.gnu-tools-for-stm32.7-2018-q2-update.macos64_1.0.0.201904181610/tools/bin/../lib/gcc/arm-none-eabi/7.3.1/thumb/v7e-m/fpv4-sp/hard/crtbegin.o
                0x0000000020000060                . = ALIGN (0x4)

.bss            0x0000000020000060     0xc644 load address 0x0000000008009de4
                0x0000000020000060                _sbss = .
                0x0000000020000060                __bss_start__ = _sbss
 *(.bss)
 .bss           0x0000000020000060       0x1c /Applications/STM32CubeIDE.app/Contents/Eclipse/plugins/com.st.stm32cube.ide.mcu.externaltools.gnu-tools-for-stm32.7-2018-q2-update.macos64_1.0.0.201904181610/tools/bin/../lib/gcc/arm-none-eabi/7.3.1/thumb/v7e-m/fpv4-sp/hard/crtbegin.o
 *(.bss*)
 .bss.LED1_FIRST_FLASH
                0x000000002000007c        0x4 Core/Src/main.o
                0x000000002000007c                LED1_FIRST_FLASH
 .bss.LED2_FIRST_FLASH
                0x0000000020000080        0x4 Core/Src/main.o
                0x0000000020000080                LED2_FIRST_FLASH
 .bss.LED3_FIRST_FLASH
                0x0000000020000084        0x4 Core/Src/main.o
                0x0000000020000084                LED3_FIRST_FLASH
 .bss.LED4_FIRST_FLASH
                0x0000000020000088        0x4 Core/Src/main.o
                0x0000000020000088                LED4_FIRST_FLASH
 .bss.REC_START_TICK
                0x000000002000008c        0x4 Core/Src/main.o
                0x000000002000008c                REC_START_TICK
 .bss.PLAY_START_TICK
                0x0000000020000090        0x4 Core/Src/main.o
                0x0000000020000090                PLAY_START_TICK
 .bss.RECORDING
                0x0000000020000094        0x2 Core/Src/main.o
                0x0000000020000094                RECORDING
 *fill*         0x0000000020000096        0x2 
 .bss.S1_BUTTON_STOP_FIRST
                0x0000000020000098        0x4 Core/Src/main.o
                0x0000000020000098                S1_BUTTON_STOP_FIRST
 .bss.S2_BUTTON_1_FIRST
                0x000000002000009c        0x4 Core/Src/main.o
                0x000000002000009c                S2_BUTTON_1_FIRST
 .bss.S3_BUTTON_2_FIRST
                0x00000000200000a0        0x4 Core/Src/main.o
                0x00000000200000a0                S3_BUTTON_2_FIRST
 .bss.S4_BUTTON_3_FIRST
                0x00000000200000a4        0x4 Core/Src/main.o
                0x00000000200000a4                S4_BUTTON_3_FIRST
 .bss.S5_BUTTON_REC_FIRST
                0x00000000200000a8        0x4 Core/Src/main.o
                0x00000000200000a8                S5_BUTTON_REC_FIRST
 .bss.rec_state1
                0x00000000200000ac        0x1 Core/Src/main.o
                0x00000000200000ac                rec_state1
 .bss.play_state1
                0x00000000200000ad        0x1 Core/Src/main.o
                0x00000000200000ad                play_state1
 .bss.savestart
                0x00000000200000ae        0x1 Core/Src/main.o
                0x00000000200000ae                savestart
 .bss.savemid   0x00000000200000af        0x1 Core/Src/main.o
                0x00000000200000af                savemid
 .bss.S1_BUTTON_STOP_STATE
                0x00000000200000b0        0x2 Core/Src/stm32f4xx_it.o
                0x00000000200000b0                S1_BUTTON_STOP_STATE
 .bss.S2_BUTTON_1_STATE
                0x00000000200000b2        0x2 Core/Src/stm32f4xx_it.o
                0x00000000200000b2                S2_BUTTON_1_STATE
 .bss.S3_BUTTON_2_STATE
                0x00000000200000b4        0x2 Core/Src/stm32f4xx_it.o
                0x00000000200000b4                S3_BUTTON_2_STATE
 .bss.S4_BUTTON_3_STATE
                0x00000000200000b6        0x2 Core/Src/stm32f4xx_it.o
                0x00000000200000b6                S4_BUTTON_3_STATE
 .bss.S5_BUTTON_REC_STATE
                0x00000000200000b8        0x2 Core/Src/stm32f4xx_it.o
                0x00000000200000b8                S5_BUTTON_REC_STATE
 *fill*         0x00000000200000ba        0x2 
 .bss.FatFs     0x00000000200000bc        0x4 Middlewares/Third_Party/FatFs/src/ff.o
 .bss.Fsid      0x00000000200000c0        0x2 Middlewares/Third_Party/FatFs/src/ff.o
 *fill*         0x00000000200000c2        0x2 
 .bss.Files     0x00000000200000c4       0x20 Middlewares/Third_Party/FatFs/src/ff.o
 .bss.disk      0x00000000200000e4        0xc Middlewares/Third_Party/FatFs/src/ff_gen_drv.o
                0x00000000200000e4                disk
 *(COMMON)
 COMMON         0x00000000200000f0     0xbf44 Core/Src/main.o
                0x00000000200000f0                numavg
                0x00000000200000f4                fs
                0x0000000020000324                rec_buf1
                0x000000002000a324                accumulator
                0x000000002000a328                htim3
                0x000000002000a368                hdma_dac1
                0x000000002000a3c8                outputbuf
                0x000000002000abc8                hadc1
                0x000000002000ac10                sdfile
                0x000000002000ae40                hdma_usart2_tx
                0x000000002000aea0                hdac
                0x000000002000aeb4                hdma_adc1
                0x000000002000af14                htim1
                0x000000002000af54                hspi1
                0x000000002000afac                htim2
                0x000000002000afec                huart2
                0x000000002000b02c                fres
                0x000000002000b030                tempsample
                0x000000002000b034                record_buffer
                0x000000002000b834                DACbuffer
 COMMON         0x000000002000c034      0x204 Core/Src/sinwave.o
                0x000000002000c034                offset_523hz
                0x000000002000c036                offset_440hz
                0x000000002000c038                sintab
 COMMON         0x000000002000c238        0x4 Drivers/STM32F4xx_HAL_Driver/Src/stm32f4xx_hal.o
                0x000000002000c238                uwTick
 COMMON         0x000000002000c23c      0x468 FATFS/App/fatfs.o
                0x000000002000c23c                USERPath
                0x000000002000c240                retUSER
                0x000000002000c244                USERFile
                0x000000002000c474                USERFatFS
                0x000000002000c6a4                . = ALIGN (0x4)
                0x000000002000c6a4                _ebss = .
                0x000000002000c6a4                __bss_end__ = _ebss

._user_heap_stack
                0x000000002000c6a4      0x604 load address 0x0000000008009de4
                0x000000002000c6a8                . = ALIGN (0x8)
 *fill*         0x000000002000c6a4        0x4 
                0x000000002000c6a8                PROVIDE (end = .)
                [!provide]                        PROVIDE (_end = .)
                0x000000002000c8a8                . = (. + _Min_Heap_Size)
 *fill*         0x000000002000c6a8      0x200 
                0x000000002000cca8                . = (. + _Min_Stack_Size)
 *fill*         0x000000002000c8a8      0x400 
                0x000000002000cca8                . = ALIGN (0x8)

/DISCARD/
 libc.a(*)
 libm.a(*)
 libgcc.a(*)

.ARM.attributes
                0x0000000000000000       0x30
 *(.ARM.attributes)
 .ARM.attributes
                0x0000000000000000       0x22 /Applications/STM32CubeIDE.app/Contents/Eclipse/plugins/com.st.stm32cube.ide.mcu.externaltools.gnu-tools-for-stm32.7-2018-q2-update.macos64_1.0.0.201904181610/tools/bin/../lib/gcc/arm-none-eabi/7.3.1/thumb/v7e-m/fpv4-sp/hard/crti.o
 .ARM.attributes
                0x0000000000000022       0x34 /Applications/STM32CubeIDE.app/Contents/Eclipse/plugins/com.st.stm32cube.ide.mcu.externaltools.gnu-tools-for-stm32.7-2018-q2-update.macos64_1.0.0.201904181610/tools/bin/../lib/gcc/arm-none-eabi/7.3.1/thumb/v7e-m/fpv4-sp/hard/crtbegin.o
 .ARM.attributes
                0x0000000000000056       0x39 Core/Src/main.o
 .ARM.attributes
                0x000000000000008f       0x39 Core/Src/sinwave.o
 .ARM.attributes
                0x00000000000000c8       0x39 Core/Src/stm32f4xx_hal_msp.o
 .ARM.attributes
                0x0000000000000101       0x39 Core/Src/stm32f4xx_it.o
 .ARM.attributes
                0x000000000000013a       0x39 Core/Src/system_stm32f4xx.o
 .ARM.attributes
                0x0000000000000173       0x21 Core/Startup/startup_stm32f446retx.o
 .ARM.attributes
                0x0000000000000194       0x39 Core/sd.o
 .ARM.attributes
                0x00000000000001cd       0x39 Drivers/STM32F4xx_HAL_Driver/Src/stm32f4xx_hal.o
 .ARM.attributes
                0x0000000000000206       0x39 Drivers/STM32F4xx_HAL_Driver/Src/stm32f4xx_hal_adc.o
 .ARM.attributes
                0x000000000000023f       0x39 Drivers/STM32F4xx_HAL_Driver/Src/stm32f4xx_hal_cortex.o
 .ARM.attributes
                0x0000000000000278       0x39 Drivers/STM32F4xx_HAL_Driver/Src/stm32f4xx_hal_dac.o
 .ARM.attributes
                0x00000000000002b1       0x39 Drivers/STM32F4xx_HAL_Driver/Src/stm32f4xx_hal_dac_ex.o
 .ARM.attributes
                0x00000000000002ea       0x39 Drivers/STM32F4xx_HAL_Driver/Src/stm32f4xx_hal_dma.o
 .ARM.attributes
                0x0000000000000323       0x39 Drivers/STM32F4xx_HAL_Driver/Src/stm32f4xx_hal_gpio.o
 .ARM.attributes
                0x000000000000035c       0x39 Drivers/STM32F4xx_HAL_Driver/Src/stm32f4xx_hal_rcc.o
 .ARM.attributes
                0x0000000000000395       0x39 Drivers/STM32F4xx_HAL_Driver/Src/stm32f4xx_hal_rcc_ex.o
 .ARM.attributes
                0x00000000000003ce       0x39 Drivers/STM32F4xx_HAL_Driver/Src/stm32f4xx_hal_spi.o
 .ARM.attributes
                0x0000000000000407       0x39 Drivers/STM32F4xx_HAL_Driver/Src/stm32f4xx_hal_tim.o
 .ARM.attributes
                0x0000000000000440       0x39 Drivers/STM32F4xx_HAL_Driver/Src/stm32f4xx_hal_tim_ex.o
 .ARM.attributes
                0x0000000000000479       0x39 Drivers/STM32F4xx_HAL_Driver/Src/stm32f4xx_hal_uart.o
 .ARM.attributes
                0x00000000000004b2       0x39 FATFS/App/fatfs.o
 .ARM.attributes
                0x00000000000004eb       0x39 FATFS/Target/user_diskio.o
 .ARM.attributes
                0x0000000000000524       0x39 Middlewares/Third_Party/FatFs/src/diskio.o
 .ARM.attributes
                0x000000000000055d       0x39 Middlewares/Third_Party/FatFs/src/ff.o
 .ARM.attributes
                0x0000000000000596       0x39 Middlewares/Third_Party/FatFs/src/ff_gen_drv.o
 .ARM.attributes
                0x00000000000005cf       0x34 /Applications/STM32CubeIDE.app/Contents/Eclipse/plugins/com.st.stm32cube.ide.mcu.externaltools.gnu-tools-for-stm32.7-2018-q2-update.macos64_1.0.0.201904181610/tools/bin/../lib/gcc/arm-none-eabi/7.3.1/../../../../arm-none-eabi/lib/thumb/v7e-m/fpv4-sp/hard/libc_nano.a(lib_a-init.o)
 .ARM.attributes
                0x0000000000000603       0x34 /Applications/STM32CubeIDE.app/Contents/Eclipse/plugins/com.st.stm32cube.ide.mcu.externaltools.gnu-tools-for-stm32.7-2018-q2-update.macos64_1.0.0.201904181610/tools/bin/../lib/gcc/arm-none-eabi/7.3.1/../../../../arm-none-eabi/lib/thumb/v7e-m/fpv4-sp/hard/libc_nano.a(lib_a-itoa.o)
 .ARM.attributes
                0x0000000000000637       0x34 /Applications/STM32CubeIDE.app/Contents/Eclipse/plugins/com.st.stm32cube.ide.mcu.externaltools.gnu-tools-for-stm32.7-2018-q2-update.macos64_1.0.0.201904181610/tools/bin/../lib/gcc/arm-none-eabi/7.3.1/../../../../arm-none-eabi/lib/thumb/v7e-m/fpv4-sp/hard/libc_nano.a(lib_a-memset.o)
 .ARM.attributes
                0x000000000000066b       0x34 /Applications/STM32CubeIDE.app/Contents/Eclipse/plugins/com.st.stm32cube.ide.mcu.externaltools.gnu-tools-for-stm32.7-2018-q2-update.macos64_1.0.0.201904181610/tools/bin/../lib/gcc/arm-none-eabi/7.3.1/../../../../arm-none-eabi/lib/thumb/v7e-m/fpv4-sp/hard/libc_nano.a(lib_a-utoa.o)
 .ARM.attributes
                0x000000000000069f       0x34 /Applications/STM32CubeIDE.app/Contents/Eclipse/plugins/com.st.stm32cube.ide.mcu.externaltools.gnu-tools-for-stm32.7-2018-q2-update.macos64_1.0.0.201904181610/tools/bin/../lib/gcc/arm-none-eabi/7.3.1/../../../../arm-none-eabi/lib/thumb/v7e-m/fpv4-sp/hard/libm.a(lib_a-sf_sin.o)
 .ARM.attributes
                0x00000000000006d3       0x34 /Applications/STM32CubeIDE.app/Contents/Eclipse/plugins/com.st.stm32cube.ide.mcu.externaltools.gnu-tools-for-stm32.7-2018-q2-update.macos64_1.0.0.201904181610/tools/bin/../lib/gcc/arm-none-eabi/7.3.1/../../../../arm-none-eabi/lib/thumb/v7e-m/fpv4-sp/hard/libm.a(lib_a-ef_rem_pio2.o)
 .ARM.attributes
                0x0000000000000707       0x34 /Applications/STM32CubeIDE.app/Contents/Eclipse/plugins/com.st.stm32cube.ide.mcu.externaltools.gnu-tools-for-stm32.7-2018-q2-update.macos64_1.0.0.201904181610/tools/bin/../lib/gcc/arm-none-eabi/7.3.1/../../../../arm-none-eabi/lib/thumb/v7e-m/fpv4-sp/hard/libm.a(lib_a-kf_cos.o)
 .ARM.attributes
                0x000000000000073b       0x34 /Applications/STM32CubeIDE.app/Contents/Eclipse/plugins/com.st.stm32cube.ide.mcu.externaltools.gnu-tools-for-stm32.7-2018-q2-update.macos64_1.0.0.201904181610/tools/bin/../lib/gcc/arm-none-eabi/7.3.1/../../../../arm-none-eabi/lib/thumb/v7e-m/fpv4-sp/hard/libm.a(lib_a-kf_rem_pio2.o)
 .ARM.attributes
                0x000000000000076f       0x34 /Applications/STM32CubeIDE.app/Contents/Eclipse/plugins/com.st.stm32cube.ide.mcu.externaltools.gnu-tools-for-stm32.7-2018-q2-update.macos64_1.0.0.201904181610/tools/bin/../lib/gcc/arm-none-eabi/7.3.1/../../../../arm-none-eabi/lib/thumb/v7e-m/fpv4-sp/hard/libm.a(lib_a-kf_sin.o)
 .ARM.attributes
                0x00000000000007a3       0x34 /Applications/STM32CubeIDE.app/Contents/Eclipse/plugins/com.st.stm32cube.ide.mcu.externaltools.gnu-tools-for-stm32.7-2018-q2-update.macos64_1.0.0.201904181610/tools/bin/../lib/gcc/arm-none-eabi/7.3.1/../../../../arm-none-eabi/lib/thumb/v7e-m/fpv4-sp/hard/libm.a(lib_a-sf_fabs.o)
 .ARM.attributes
                0x00000000000007d7       0x34 /Applications/STM32CubeIDE.app/Contents/Eclipse/plugins/com.st.stm32cube.ide.mcu.externaltools.gnu-tools-for-stm32.7-2018-q2-update.macos64_1.0.0.201904181610/tools/bin/../lib/gcc/arm-none-eabi/7.3.1/../../../../arm-none-eabi/lib/thumb/v7e-m/fpv4-sp/hard/libm.a(lib_a-sf_floor.o)
 .ARM.attributes
                0x000000000000080b       0x34 /Applications/STM32CubeIDE.app/Contents/Eclipse/plugins/com.st.stm32cube.ide.mcu.externaltools.gnu-tools-for-stm32.7-2018-q2-update.macos64_1.0.0.201904181610/tools/bin/../lib/gcc/arm-none-eabi/7.3.1/../../../../arm-none-eabi/lib/thumb/v7e-m/fpv4-sp/hard/libm.a(lib_a-sf_scalbn.o)
 .ARM.attributes
                0x000000000000083f       0x34 /Applications/STM32CubeIDE.app/Contents/Eclipse/plugins/com.st.stm32cube.ide.mcu.externaltools.gnu-tools-for-stm32.7-2018-q2-update.macos64_1.0.0.201904181610/tools/bin/../lib/gcc/arm-none-eabi/7.3.1/../../../../arm-none-eabi/lib/thumb/v7e-m/fpv4-sp/hard/libm.a(lib_a-sf_copysign.o)
 .ARM.attributes
                0x0000000000000873       0x22 /Applications/STM32CubeIDE.app/Contents/Eclipse/plugins/com.st.stm32cube.ide.mcu.externaltools.gnu-tools-for-stm32.7-2018-q2-update.macos64_1.0.0.201904181610/tools/bin/../lib/gcc/arm-none-eabi/7.3.1/thumb/v7e-m/fpv4-sp/hard/libgcc.a(_aeabi_uldivmod.o)
 .ARM.attributes
                0x0000000000000895       0x34 /Applications/STM32CubeIDE.app/Contents/Eclipse/plugins/com.st.stm32cube.ide.mcu.externaltools.gnu-tools-for-stm32.7-2018-q2-update.macos64_1.0.0.201904181610/tools/bin/../lib/gcc/arm-none-eabi/7.3.1/thumb/v7e-m/fpv4-sp/hard/libgcc.a(_udivmoddi4.o)
 .ARM.attributes
                0x00000000000008c9       0x22 /Applications/STM32CubeIDE.app/Contents/Eclipse/plugins/com.st.stm32cube.ide.mcu.externaltools.gnu-tools-for-stm32.7-2018-q2-update.macos64_1.0.0.201904181610/tools/bin/../lib/gcc/arm-none-eabi/7.3.1/thumb/v7e-m/fpv4-sp/hard/libgcc.a(_dvmd_tls.o)
 .ARM.attributes
                0x00000000000008eb       0x22 /Applications/STM32CubeIDE.app/Contents/Eclipse/plugins/com.st.stm32cube.ide.mcu.externaltools.gnu-tools-for-stm32.7-2018-q2-update.macos64_1.0.0.201904181610/tools/bin/../lib/gcc/arm-none-eabi/7.3.1/thumb/v7e-m/fpv4-sp/hard/crtn.o
OUTPUT(edesign_2020_.elf elf32-littlearm)

.debug_info     0x0000000000000000    0x17df8
 .debug_info    0x0000000000000000     0x2cd7 Core/Src/main.o
 .debug_info    0x0000000000002cd7      0x9ef Core/Src/sinwave.o
 .debug_info    0x00000000000036c6     0x16e9 Core/Src/stm32f4xx_hal_msp.o
 .debug_info    0x0000000000004daf      0x8c7 Core/Src/stm32f4xx_it.o
 .debug_info    0x0000000000005676      0x588 Core/Src/system_stm32f4xx.o
 .debug_info    0x0000000000005bfe       0x22 Core/Startup/startup_stm32f446retx.o
 .debug_info    0x0000000000005c20      0x9f6 Core/sd.o
 .debug_info    0x0000000000006616      0x997 Drivers/STM32F4xx_HAL_Driver/Src/stm32f4xx_hal.o
 .debug_info    0x0000000000006fad      0xcee Drivers/STM32F4xx_HAL_Driver/Src/stm32f4xx_hal_adc.o
 .debug_info    0x0000000000007c9b      0xe46 Drivers/STM32F4xx_HAL_Driver/Src/stm32f4xx_hal_cortex.o
 .debug_info    0x0000000000008ae1      0xa3a Drivers/STM32F4xx_HAL_Driver/Src/stm32f4xx_hal_dac.o
 .debug_info    0x000000000000951b      0x7c0 Drivers/STM32F4xx_HAL_Driver/Src/stm32f4xx_hal_dac_ex.o
 .debug_info    0x0000000000009cdb      0x968 Drivers/STM32F4xx_HAL_Driver/Src/stm32f4xx_hal_dma.o
 .debug_info    0x000000000000a643      0x803 Drivers/STM32F4xx_HAL_Driver/Src/stm32f4xx_hal_gpio.o
 .debug_info    0x000000000000ae46      0x944 Drivers/STM32F4xx_HAL_Driver/Src/stm32f4xx_hal_rcc.o
 .debug_info    0x000000000000b78a      0x9d5 Drivers/STM32F4xx_HAL_Driver/Src/stm32f4xx_hal_rcc_ex.o
 .debug_info    0x000000000000c15f     0x163a Drivers/STM32F4xx_HAL_Driver/Src/stm32f4xx_hal_spi.o
 .debug_info    0x000000000000d799     0x24a9 Drivers/STM32F4xx_HAL_Driver/Src/stm32f4xx_hal_tim.o
 .debug_info    0x000000000000fc42     0x1157 Drivers/STM32F4xx_HAL_Driver/Src/stm32f4xx_hal_tim_ex.o
 .debug_info    0x0000000000010d99     0x124c Drivers/STM32F4xx_HAL_Driver/Src/stm32f4xx_hal_uart.o
 .debug_info    0x0000000000011fe5      0xd81 FATFS/App/fatfs.o
 .debug_info    0x0000000000012d66      0xceb FATFS/Target/user_diskio.o
 .debug_info    0x0000000000013a51      0xcdc Middlewares/Third_Party/FatFs/src/diskio.o
 .debug_info    0x000000000001472d     0x2a57 Middlewares/Third_Party/FatFs/src/ff.o
 .debug_info    0x0000000000017184      0xc74 Middlewares/Third_Party/FatFs/src/ff_gen_drv.o

.debug_abbrev   0x0000000000000000     0x323f
 .debug_abbrev  0x0000000000000000      0x35c Core/Src/main.o
 .debug_abbrev  0x000000000000035c      0x1f6 Core/Src/sinwave.o
 .debug_abbrev  0x0000000000000552      0x1de Core/Src/stm32f4xx_hal_msp.o
 .debug_abbrev  0x0000000000000730      0x183 Core/Src/stm32f4xx_it.o
 .debug_abbrev  0x00000000000008b3      0x12b Core/Src/system_stm32f4xx.o
 .debug_abbrev  0x00000000000009de       0x12 Core/Startup/startup_stm32f446retx.o
 .debug_abbrev  0x00000000000009f0      0x1de Core/sd.o
 .debug_abbrev  0x0000000000000bce      0x1c7 Drivers/STM32F4xx_HAL_Driver/Src/stm32f4xx_hal.o
 .debug_abbrev  0x0000000000000d95      0x205 Drivers/STM32F4xx_HAL_Driver/Src/stm32f4xx_hal_adc.o
 .debug_abbrev  0x0000000000000f9a      0x2fa Drivers/STM32F4xx_HAL_Driver/Src/stm32f4xx_hal_cortex.o
 .debug_abbrev  0x0000000000001294      0x1e4 Drivers/STM32F4xx_HAL_Driver/Src/stm32f4xx_hal_dac.o
 .debug_abbrev  0x0000000000001478      0x1e8 Drivers/STM32F4xx_HAL_Driver/Src/stm32f4xx_hal_dac_ex.o
 .debug_abbrev  0x0000000000001660      0x229 Drivers/STM32F4xx_HAL_Driver/Src/stm32f4xx_hal_dma.o
 .debug_abbrev  0x0000000000001889      0x1c9 Drivers/STM32F4xx_HAL_Driver/Src/stm32f4xx_hal_gpio.o
 .debug_abbrev  0x0000000000001a52      0x245 Drivers/STM32F4xx_HAL_Driver/Src/stm32f4xx_hal_rcc.o
 .debug_abbrev  0x0000000000001c97      0x1bc Drivers/STM32F4xx_HAL_Driver/Src/stm32f4xx_hal_rcc_ex.o
 .debug_abbrev  0x0000000000001e53      0x240 Drivers/STM32F4xx_HAL_Driver/Src/stm32f4xx_hal_spi.o
 .debug_abbrev  0x0000000000002093      0x230 Drivers/STM32F4xx_HAL_Driver/Src/stm32f4xx_hal_tim.o
 .debug_abbrev  0x00000000000022c3      0x21e Drivers/STM32F4xx_HAL_Driver/Src/stm32f4xx_hal_tim_ex.o
 .debug_abbrev  0x00000000000024e1      0x242 Drivers/STM32F4xx_HAL_Driver/Src/stm32f4xx_hal_uart.o
 .debug_abbrev  0x0000000000002723      0x1df FATFS/App/fatfs.o
 .debug_abbrev  0x0000000000002902      0x259 FATFS/Target/user_diskio.o
 .debug_abbrev  0x0000000000002b5b      0x209 Middlewares/Third_Party/FatFs/src/diskio.o
 .debug_abbrev  0x0000000000002d64      0x2a5 Middlewares/Third_Party/FatFs/src/ff.o
 .debug_abbrev  0x0000000000003009      0x236 Middlewares/Third_Party/FatFs/src/ff_gen_drv.o

.debug_aranges  0x0000000000000000     0x1460
 .debug_aranges
                0x0000000000000000       0xd0 Core/Src/main.o
 .debug_aranges
                0x00000000000000d0       0x28 Core/Src/sinwave.o
 .debug_aranges
                0x00000000000000f8       0x70 Core/Src/stm32f4xx_hal_msp.o
 .debug_aranges
                0x0000000000000168       0xb0 Core/Src/stm32f4xx_it.o
 .debug_aranges
                0x0000000000000218       0x28 Core/Src/system_stm32f4xx.o
 .debug_aranges
                0x0000000000000240       0x28 Core/Startup/startup_stm32f446retx.o
 .debug_aranges
                0x0000000000000268       0x60 Core/sd.o
 .debug_aranges
                0x00000000000002c8       0xf0 Drivers/STM32F4xx_HAL_Driver/Src/stm32f4xx_hal.o
 .debug_aranges
                0x00000000000003b8       0xe8 Drivers/STM32F4xx_HAL_Driver/Src/stm32f4xx_hal_adc.o
 .debug_aranges
                0x00000000000004a0      0x118 Drivers/STM32F4xx_HAL_Driver/Src/stm32f4xx_hal_cortex.o
 .debug_aranges
                0x00000000000005b8       0xc0 Drivers/STM32F4xx_HAL_Driver/Src/stm32f4xx_hal_dac.o
 .debug_aranges
                0x0000000000000678       0x70 Drivers/STM32F4xx_HAL_Driver/Src/stm32f4xx_hal_dac_ex.o
 .debug_aranges
                0x00000000000006e8       0x90 Drivers/STM32F4xx_HAL_Driver/Src/stm32f4xx_hal_dma.o
 .debug_aranges
                0x0000000000000778       0x58 Drivers/STM32F4xx_HAL_Driver/Src/stm32f4xx_hal_gpio.o
 .debug_aranges
                0x00000000000007d0       0x88 Drivers/STM32F4xx_HAL_Driver/Src/stm32f4xx_hal_rcc.o
 .debug_aranges
                0x0000000000000858       0x78 Drivers/STM32F4xx_HAL_Driver/Src/stm32f4xx_hal_rcc_ex.o
 .debug_aranges
                0x00000000000008d0      0x1d0 Drivers/STM32F4xx_HAL_Driver/Src/stm32f4xx_hal_spi.o
 .debug_aranges
                0x0000000000000aa0      0x3a8 Drivers/STM32F4xx_HAL_Driver/Src/stm32f4xx_hal_tim.o
 .debug_aranges
                0x0000000000000e48      0x150 Drivers/STM32F4xx_HAL_Driver/Src/stm32f4xx_hal_tim_ex.o
 .debug_aranges
                0x0000000000000f98      0x1d0 Drivers/STM32F4xx_HAL_Driver/Src/stm32f4xx_hal_uart.o
 .debug_aranges
                0x0000000000001168       0x28 FATFS/App/fatfs.o
 .debug_aranges
                0x0000000000001190       0x40 FATFS/Target/user_diskio.o
 .debug_aranges
                0x00000000000011d0       0x48 Middlewares/Third_Party/FatFs/src/diskio.o
 .debug_aranges
                0x0000000000001218      0x208 Middlewares/Third_Party/FatFs/src/ff.o
 .debug_aranges
                0x0000000000001420       0x40 Middlewares/Third_Party/FatFs/src/ff_gen_drv.o

.debug_ranges   0x0000000000000000     0x12d8
 .debug_ranges  0x0000000000000000       0xc0 Core/Src/main.o
 .debug_ranges  0x00000000000000c0       0x18 Core/Src/sinwave.o
 .debug_ranges  0x00000000000000d8       0x60 Core/Src/stm32f4xx_hal_msp.o
 .debug_ranges  0x0000000000000138       0xa0 Core/Src/stm32f4xx_it.o
 .debug_ranges  0x00000000000001d8       0x18 Core/Src/system_stm32f4xx.o
 .debug_ranges  0x00000000000001f0       0x20 Core/Startup/startup_stm32f446retx.o
 .debug_ranges  0x0000000000000210       0x50 Core/sd.o
 .debug_ranges  0x0000000000000260       0xe0 Drivers/STM32F4xx_HAL_Driver/Src/stm32f4xx_hal.o
 .debug_ranges  0x0000000000000340       0xd8 Drivers/STM32F4xx_HAL_Driver/Src/stm32f4xx_hal_adc.o
 .debug_ranges  0x0000000000000418      0x108 Drivers/STM32F4xx_HAL_Driver/Src/stm32f4xx_hal_cortex.o
 .debug_ranges  0x0000000000000520       0xb0 Drivers/STM32F4xx_HAL_Driver/Src/stm32f4xx_hal_dac.o
 .debug_ranges  0x00000000000005d0       0x60 Drivers/STM32F4xx_HAL_Driver/Src/stm32f4xx_hal_dac_ex.o
 .debug_ranges  0x0000000000000630       0x80 Drivers/STM32F4xx_HAL_Driver/Src/stm32f4xx_hal_dma.o
 .debug_ranges  0x00000000000006b0       0x48 Drivers/STM32F4xx_HAL_Driver/Src/stm32f4xx_hal_gpio.o
 .debug_ranges  0x00000000000006f8       0x78 Drivers/STM32F4xx_HAL_Driver/Src/stm32f4xx_hal_rcc.o
 .debug_ranges  0x0000000000000770       0x68 Drivers/STM32F4xx_HAL_Driver/Src/stm32f4xx_hal_rcc_ex.o
 .debug_ranges  0x00000000000007d8      0x1c0 Drivers/STM32F4xx_HAL_Driver/Src/stm32f4xx_hal_spi.o
 .debug_ranges  0x0000000000000998      0x398 Drivers/STM32F4xx_HAL_Driver/Src/stm32f4xx_hal_tim.o
 .debug_ranges  0x0000000000000d30      0x140 Drivers/STM32F4xx_HAL_Driver/Src/stm32f4xx_hal_tim_ex.o
 .debug_ranges  0x0000000000000e70      0x1c0 Drivers/STM32F4xx_HAL_Driver/Src/stm32f4xx_hal_uart.o
 .debug_ranges  0x0000000000001030       0x18 FATFS/App/fatfs.o
 .debug_ranges  0x0000000000001048       0x30 FATFS/Target/user_diskio.o
 .debug_ranges  0x0000000000001078       0x38 Middlewares/Third_Party/FatFs/src/diskio.o
 .debug_ranges  0x00000000000010b0      0x1f8 Middlewares/Third_Party/FatFs/src/ff.o
 .debug_ranges  0x00000000000012a8       0x30 Middlewares/Third_Party/FatFs/src/ff_gen_drv.o

.debug_macro    0x0000000000000000    0x24513
 .debug_macro   0x0000000000000000      0x339 Core/Src/main.o
 .debug_macro   0x0000000000000339      0x19c Core/Src/main.o
 .debug_macro   0x00000000000004d5       0x32 Core/Src/main.o
 .debug_macro   0x0000000000000507       0x28 Core/Src/main.o
 .debug_macro   0x000000000000052f       0x22 Core/Src/main.o
 .debug_macro   0x0000000000000551       0x8e Core/Src/main.o
 .debug_macro   0x00000000000005df       0x51 Core/Src/main.o
 .debug_macro   0x0000000000000630       0xef Core/Src/main.o
 .debug_macro   0x000000000000071f       0x6a Core/Src/main.o
 .debug_macro   0x0000000000000789      0x1df Core/Src/main.o
 .debug_macro   0x0000000000000968       0x1c Core/Src/main.o
 .debug_macro   0x0000000000000984       0x22 Core/Src/main.o
 .debug_macro   0x00000000000009a6       0xdf Core/Src/main.o
 .debug_macro   0x0000000000000a85     0x102d Core/Src/main.o
 .debug_macro   0x0000000000001ab2      0x11f Core/Src/main.o
 .debug_macro   0x0000000000001bd1    0x1672d Core/Src/main.o
 .debug_macro   0x00000000000182fe       0x43 Core/Src/main.o
 .debug_macro   0x0000000000018341     0x3652 Core/Src/main.o
 .debug_macro   0x000000000001b993      0x174 Core/Src/main.o
 .debug_macro   0x000000000001bb07       0x5a Core/Src/main.o
 .debug_macro   0x000000000001bb61      0xc90 Core/Src/main.o
 .debug_macro   0x000000000001c7f1      0x9fe Core/Src/main.o
 .debug_macro   0x000000000001d1ef      0x16d Core/Src/main.o
 .debug_macro   0x000000000001d35c      0x117 Core/Src/main.o
 .debug_macro   0x000000000001d473      0x1a0 Core/Src/main.o
 .debug_macro   0x000000000001d613       0x27 Core/Src/main.o
 .debug_macro   0x000000000001d63a      0x287 Core/Src/main.o
 .debug_macro   0x000000000001d8c1       0x5f Core/Src/main.o
 .debug_macro   0x000000000001d920      0x236 Core/Src/main.o
 .debug_macro   0x000000000001db56      0x391 Core/Src/main.o
 .debug_macro   0x000000000001dee7      0x17d Core/Src/main.o
 .debug_macro   0x000000000001e064       0xf9 Core/Src/main.o
 .debug_macro   0x000000000001e15d       0xea Core/Src/main.o
 .debug_macro   0x000000000001e247       0xa0 Core/Src/main.o
 .debug_macro   0x000000000001e2e7       0x3c Core/Src/main.o
 .debug_macro   0x000000000001e323      0x132 Core/Src/main.o
 .debug_macro   0x000000000001e455      0x29c Core/Src/main.o
 .debug_macro   0x000000000001e6f1       0x2e Core/Src/main.o
 .debug_macro   0x000000000001e71f      0x11a Core/Src/main.o
 .debug_macro   0x000000000001e839       0xe8 Core/Src/main.o
 .debug_macro   0x000000000001e921       0x89 Core/Src/main.o
 .debug_macro   0x000000000001e9aa      0x225 Core/Src/main.o
 .debug_macro   0x000000000001ebcf      0x8a0 Core/Src/main.o
 .debug_macro   0x000000000001f46f       0x4d Core/Src/main.o
 .debug_macro   0x000000000001f4bc      0x287 Core/Src/main.o
 .debug_macro   0x000000000001f743      0x126 Core/Src/main.o
 .debug_macro   0x000000000001f869       0xd6 Core/Src/main.o
 .debug_macro   0x000000000001f93f       0xeb Core/Src/main.o
 .debug_macro   0x000000000001fa2a       0x18 Core/Src/main.o
 .debug_macro   0x000000000001fa42       0x46 Core/Src/main.o
 .debug_macro   0x000000000001fa88       0x3c Core/Src/main.o
 .debug_macro   0x000000000001fac4       0x34 Core/Src/main.o
 .debug_macro   0x000000000001faf8       0x16 Core/Src/main.o
 .debug_macro   0x000000000001fb0e       0x35 Core/Src/main.o
 .debug_macro   0x000000000001fb43       0x52 Core/Src/main.o
 .debug_macro   0x000000000001fb95       0x1f Core/Src/main.o
 .debug_macro   0x000000000001fbb4       0x43 Core/Src/main.o
 .debug_macro   0x000000000001fbf7       0x20 Core/Src/main.o
 .debug_macro   0x000000000001fc17      0x1a3 Core/Src/main.o
 .debug_macro   0x000000000001fdba      0x32a Core/Src/main.o
 .debug_macro   0x00000000000200e4       0x16 Core/Src/main.o
 .debug_macro   0x00000000000200fa       0x29 Core/Src/main.o
 .debug_macro   0x0000000000020123       0x12 Core/Src/main.o
 .debug_macro   0x0000000000020135       0xe2 Core/Src/main.o
 .debug_macro   0x0000000000020217       0x8e Core/Src/main.o
 .debug_macro   0x00000000000202a5      0x100 Core/Src/sinwave.o
 .debug_macro   0x00000000000203a5       0x40 Core/Src/sinwave.o
 .debug_macro   0x00000000000203e5       0x94 Core/Src/sinwave.o
 .debug_macro   0x0000000000020479       0x57 Core/Src/sinwave.o
 .debug_macro   0x00000000000204d0      0x330 Core/Src/sinwave.o
 .debug_macro   0x0000000000020800      0x1e1 Core/Src/sinwave.o
 .debug_macro   0x00000000000209e1      0x219 Core/Src/stm32f4xx_hal_msp.o
 .debug_macro   0x0000000000020bfa      0x223 Core/Src/stm32f4xx_it.o
 .debug_macro   0x0000000000020e1d      0x210 Core/Src/system_stm32f4xx.o
 .debug_macro   0x000000000002102d      0x219 Core/sd.o
 .debug_macro   0x0000000000021246      0x26a Drivers/STM32F4xx_HAL_Driver/Src/stm32f4xx_hal.o
 .debug_macro   0x00000000000214b0      0x20b Drivers/STM32F4xx_HAL_Driver/Src/stm32f4xx_hal_adc.o
 .debug_macro   0x00000000000216bb      0x20a Drivers/STM32F4xx_HAL_Driver/Src/stm32f4xx_hal_cortex.o
 .debug_macro   0x00000000000218c5      0x20b Drivers/STM32F4xx_HAL_Driver/Src/stm32f4xx_hal_dac.o
 .debug_macro   0x0000000000021ad0      0x20a Drivers/STM32F4xx_HAL_Driver/Src/stm32f4xx_hal_dac_ex.o
 .debug_macro   0x0000000000021cda      0x210 Drivers/STM32F4xx_HAL_Driver/Src/stm32f4xx_hal_dma.o
 .debug_macro   0x0000000000021eea      0x240 Drivers/STM32F4xx_HAL_Driver/Src/stm32f4xx_hal_gpio.o
 .debug_macro   0x000000000002212a      0x22e Drivers/STM32F4xx_HAL_Driver/Src/stm32f4xx_hal_rcc.o
 .debug_macro   0x0000000000022358      0x20a Drivers/STM32F4xx_HAL_Driver/Src/stm32f4xx_hal_rcc_ex.o
 .debug_macro   0x0000000000022562      0x219 Drivers/STM32F4xx_HAL_Driver/Src/stm32f4xx_hal_spi.o
 .debug_macro   0x000000000002277b      0x20b Drivers/STM32F4xx_HAL_Driver/Src/stm32f4xx_hal_tim.o
 .debug_macro   0x0000000000022986      0x20a Drivers/STM32F4xx_HAL_Driver/Src/stm32f4xx_hal_tim_ex.o
 .debug_macro   0x0000000000022b90      0x20b Drivers/STM32F4xx_HAL_Driver/Src/stm32f4xx_hal_uart.o
 .debug_macro   0x0000000000022d9b      0x331 FATFS/App/fatfs.o
 .debug_macro   0x00000000000230cc       0xe5 FATFS/App/fatfs.o
 .debug_macro   0x00000000000231b1      0x3ba FATFS/Target/user_diskio.o
 .debug_macro   0x000000000002356b       0x10 FATFS/Target/user_diskio.o
 .debug_macro   0x000000000002357b       0x20 FATFS/Target/user_diskio.o
 .debug_macro   0x000000000002359b       0x16 FATFS/Target/user_diskio.o
 .debug_macro   0x00000000000235b1       0x7c FATFS/Target/user_diskio.o
 .debug_macro   0x000000000002362d       0xd9 FATFS/Target/user_diskio.o
 .debug_macro   0x0000000000023706       0x54 FATFS/Target/user_diskio.o
 .debug_macro   0x000000000002375a      0x31e Middlewares/Third_Party/FatFs/src/diskio.o
 .debug_macro   0x0000000000023a78      0x725 Middlewares/Third_Party/FatFs/src/ff.o
 .debug_macro   0x000000000002419d       0x58 Middlewares/Third_Party/FatFs/src/ff.o
 .debug_macro   0x00000000000241f5      0x31e Middlewares/Third_Party/FatFs/src/ff_gen_drv.o

.debug_line     0x0000000000000000    0x11c2d
 .debug_line    0x0000000000000000      0xdab Core/Src/main.o
 .debug_line    0x0000000000000dab      0x541 Core/Src/sinwave.o
 .debug_line    0x00000000000012ec      0x8a6 Core/Src/stm32f4xx_hal_msp.o
 .debug_line    0x0000000000001b92      0x8d1 Core/Src/stm32f4xx_it.o
 .debug_line    0x0000000000002463      0x785 Core/Src/system_stm32f4xx.o
 .debug_line    0x0000000000002be8       0x86 Core/Startup/startup_stm32f446retx.o
 .debug_line    0x0000000000002c6e      0x8e9 Core/sd.o
 .debug_line    0x0000000000003557      0x96f Drivers/STM32F4xx_HAL_Driver/Src/stm32f4xx_hal.o
 .debug_line    0x0000000000003ec6      0xbd6 Drivers/STM32F4xx_HAL_Driver/Src/stm32f4xx_hal_adc.o
 .debug_line    0x0000000000004a9c      0xa93 Drivers/STM32F4xx_HAL_Driver/Src/stm32f4xx_hal_cortex.o
 .debug_line    0x000000000000552f      0x9c3 Drivers/STM32F4xx_HAL_Driver/Src/stm32f4xx_hal_dac.o
 .debug_line    0x0000000000005ef2      0x886 Drivers/STM32F4xx_HAL_Driver/Src/stm32f4xx_hal_dac_ex.o
 .debug_line    0x0000000000006778      0xa3d Drivers/STM32F4xx_HAL_Driver/Src/stm32f4xx_hal_dma.o
 .debug_line    0x00000000000071b5      0x93a Drivers/STM32F4xx_HAL_Driver/Src/stm32f4xx_hal_gpio.o
 .debug_line    0x0000000000007aef      0x9c7 Drivers/STM32F4xx_HAL_Driver/Src/stm32f4xx_hal_rcc.o
 .debug_line    0x00000000000084b6      0xb58 Drivers/STM32F4xx_HAL_Driver/Src/stm32f4xx_hal_rcc_ex.o
 .debug_line    0x000000000000900e     0x1122 Drivers/STM32F4xx_HAL_Driver/Src/stm32f4xx_hal_spi.o
 .debug_line    0x000000000000a130     0x19e8 Drivers/STM32F4xx_HAL_Driver/Src/stm32f4xx_hal_tim.o
 .debug_line    0x000000000000bb18      0xd85 Drivers/STM32F4xx_HAL_Driver/Src/stm32f4xx_hal_tim_ex.o
 .debug_line    0x000000000000c89d     0x107d Drivers/STM32F4xx_HAL_Driver/Src/stm32f4xx_hal_uart.o
 .debug_line    0x000000000000d91a      0x94e FATFS/App/fatfs.o
 .debug_line    0x000000000000e268      0x9fa FATFS/Target/user_diskio.o
 .debug_line    0x000000000000ec62      0x978 Middlewares/Third_Party/FatFs/src/diskio.o
 .debug_line    0x000000000000f5da     0x1cdd Middlewares/Third_Party/FatFs/src/ff.o
 .debug_line    0x00000000000112b7      0x976 Middlewares/Third_Party/FatFs/src/ff_gen_drv.o

.debug_str      0x0000000000000000    0xd8ca3
 .debug_str     0x0000000000000000    0xd381d Core/Src/main.o
                                      0xd3cda (size before relaxing)
 .debug_str     0x00000000000d381d      0x8ed Core/Src/sinwave.o
                                       0x7769 (size before relaxing)
 .debug_str     0x00000000000d410a       0xf7 Core/Src/stm32f4xx_hal_msp.o
                                      0xcfe1e (size before relaxing)
 .debug_str     0x00000000000d4201      0x19e Core/Src/stm32f4xx_it.o
                                      0xcf2ac (size before relaxing)
 .debug_str     0x00000000000d439f       0xc4 Core/Src/system_stm32f4xx.o
                                      0xcea3b (size before relaxing)
 .debug_str     0x00000000000d4463       0x36 Core/Startup/startup_stm32f446retx.o
                                         0x58 (size before relaxing)
 .debug_str     0x00000000000d4499       0xc7 Core/sd.o
                                      0xcf167 (size before relaxing)
 .debug_str     0x00000000000d4560      0x58d Drivers/STM32F4xx_HAL_Driver/Src/stm32f4xx_hal.o
                                      0xcf549 (size before relaxing)
 .debug_str     0x00000000000d4aed      0x267 Drivers/STM32F4xx_HAL_Driver/Src/stm32f4xx_hal_adc.o
                                      0xcefad (size before relaxing)
 .debug_str     0x00000000000d4d54      0x392 Drivers/STM32F4xx_HAL_Driver/Src/stm32f4xx_hal_cortex.o
                                      0xcf313 (size before relaxing)
 .debug_str     0x00000000000d50e6      0x181 Drivers/STM32F4xx_HAL_Driver/Src/stm32f4xx_hal_dac.o
                                      0xcee3a (size before relaxing)
 .debug_str     0x00000000000d5267      0x164 Drivers/STM32F4xx_HAL_Driver/Src/stm32f4xx_hal_dac_ex.o
                                      0xced6a (size before relaxing)
 .debug_str     0x00000000000d53cb      0x31d Drivers/STM32F4xx_HAL_Driver/Src/stm32f4xx_hal_dma.o
                                      0xcee2b (size before relaxing)
 .debug_str     0x00000000000d56e8      0x1ec Drivers/STM32F4xx_HAL_Driver/Src/stm32f4xx_hal_gpio.o
                                      0xcec7a (size before relaxing)
 .debug_str     0x00000000000d58d4      0x259 Drivers/STM32F4xx_HAL_Driver/Src/stm32f4xx_hal_rcc.o
                                      0xcee2d (size before relaxing)
 .debug_str     0x00000000000d5b2d      0x31c Drivers/STM32F4xx_HAL_Driver/Src/stm32f4xx_hal_rcc_ex.o
                                      0xcee7f (size before relaxing)
 .debug_str     0x00000000000d5e49      0x55a Drivers/STM32F4xx_HAL_Driver/Src/stm32f4xx_hal_spi.o
                                      0xcf284 (size before relaxing)
 .debug_str     0x00000000000d63a3      0xce2 Drivers/STM32F4xx_HAL_Driver/Src/stm32f4xx_hal_tim.o
                                      0xcfb22 (size before relaxing)
 .debug_str     0x00000000000d7085      0x4a2 Drivers/STM32F4xx_HAL_Driver/Src/stm32f4xx_hal_tim_ex.o
                                      0xcf322 (size before relaxing)
 .debug_str     0x00000000000d7527      0x507 Drivers/STM32F4xx_HAL_Driver/Src/stm32f4xx_hal_uart.o
                                      0xcf262 (size before relaxing)
 .debug_str     0x00000000000d7a2e       0x2f FATFS/App/fatfs.o
                                      0xd2404 (size before relaxing)
 .debug_str     0x00000000000d7a5d       0xd9 FATFS/Target/user_diskio.o
                                      0xd23d7 (size before relaxing)
 .debug_str     0x00000000000d7b36       0x52 Middlewares/Third_Party/FatFs/src/diskio.o
                                      0xd2324 (size before relaxing)
 .debug_str     0x00000000000d7b88     0x1079 Middlewares/Third_Party/FatFs/src/ff.o
                                      0xd3549 (size before relaxing)
 .debug_str     0x00000000000d8c01       0xa2 Middlewares/Third_Party/FatFs/src/ff_gen_drv.o
                                      0xd2375 (size before relaxing)

.comment        0x0000000000000000       0x7b
 .comment       0x0000000000000000       0x7b Core/Src/main.o
                                         0x7c (size before relaxing)
 .comment       0x000000000000007b       0x7c Core/Src/sinwave.o
 .comment       0x000000000000007b       0x7c Core/Src/stm32f4xx_hal_msp.o
 .comment       0x000000000000007b       0x7c Core/Src/stm32f4xx_it.o
 .comment       0x000000000000007b       0x7c Core/Src/system_stm32f4xx.o
 .comment       0x000000000000007b       0x7c Core/sd.o
 .comment       0x000000000000007b       0x7c Drivers/STM32F4xx_HAL_Driver/Src/stm32f4xx_hal.o
 .comment       0x000000000000007b       0x7c Drivers/STM32F4xx_HAL_Driver/Src/stm32f4xx_hal_adc.o
 .comment       0x000000000000007b       0x7c Drivers/STM32F4xx_HAL_Driver/Src/stm32f4xx_hal_cortex.o
 .comment       0x000000000000007b       0x7c Drivers/STM32F4xx_HAL_Driver/Src/stm32f4xx_hal_dac.o
 .comment       0x000000000000007b       0x7c Drivers/STM32F4xx_HAL_Driver/Src/stm32f4xx_hal_dac_ex.o
 .comment       0x000000000000007b       0x7c Drivers/STM32F4xx_HAL_Driver/Src/stm32f4xx_hal_dma.o
 .comment       0x000000000000007b       0x7c Drivers/STM32F4xx_HAL_Driver/Src/stm32f4xx_hal_gpio.o
 .comment       0x000000000000007b       0x7c Drivers/STM32F4xx_HAL_Driver/Src/stm32f4xx_hal_rcc.o
 .comment       0x000000000000007b       0x7c Drivers/STM32F4xx_HAL_Driver/Src/stm32f4xx_hal_rcc_ex.o
 .comment       0x000000000000007b       0x7c Drivers/STM32F4xx_HAL_Driver/Src/stm32f4xx_hal_spi.o
 .comment       0x000000000000007b       0x7c Drivers/STM32F4xx_HAL_Driver/Src/stm32f4xx_hal_tim.o
 .comment       0x000000000000007b       0x7c Drivers/STM32F4xx_HAL_Driver/Src/stm32f4xx_hal_tim_ex.o
 .comment       0x000000000000007b       0x7c Drivers/STM32F4xx_HAL_Driver/Src/stm32f4xx_hal_uart.o
 .comment       0x000000000000007b       0x7c FATFS/App/fatfs.o
 .comment       0x000000000000007b       0x7c FATFS/Target/user_diskio.o
 .comment       0x000000000000007b       0x7c Middlewares/Third_Party/FatFs/src/diskio.o
 .comment       0x000000000000007b       0x7c Middlewares/Third_Party/FatFs/src/ff.o
 .comment       0x000000000000007b       0x7c Middlewares/Third_Party/FatFs/src/ff_gen_drv.o

.debug_frame    0x0000000000000000     0x574c
 .debug_frame   0x0000000000000000      0x334 Core/Src/main.o
 .debug_frame   0x0000000000000334       0x5c Core/Src/sinwave.o
 .debug_frame   0x0000000000000390      0x19c Core/Src/stm32f4xx_hal_msp.o
 .debug_frame   0x000000000000052c      0x224 Core/Src/stm32f4xx_it.o
 .debug_frame   0x0000000000000750       0x58 Core/Src/system_stm32f4xx.o
 .debug_frame   0x00000000000007a8      0x148 Core/sd.o
 .debug_frame   0x00000000000008f0      0x374 Drivers/STM32F4xx_HAL_Driver/Src/stm32f4xx_hal.o
 .debug_frame   0x0000000000000c64      0x3fc Drivers/STM32F4xx_HAL_Driver/Src/stm32f4xx_hal_adc.o
 .debug_frame   0x0000000000001060      0x498 Drivers/STM32F4xx_HAL_Driver/Src/stm32f4xx_hal_cortex.o
 .debug_frame   0x00000000000014f8      0x338 Drivers/STM32F4xx_HAL_Driver/Src/stm32f4xx_hal_dac.o
 .debug_frame   0x0000000000001830      0x1bc Drivers/STM32F4xx_HAL_Driver/Src/stm32f4xx_hal_dac_ex.o
 .debug_frame   0x00000000000019ec      0x250 Drivers/STM32F4xx_HAL_Driver/Src/stm32f4xx_hal_dma.o
 .debug_frame   0x0000000000001c3c      0x14c Drivers/STM32F4xx_HAL_Driver/Src/stm32f4xx_hal_gpio.o
 .debug_frame   0x0000000000001d88      0x1f0 Drivers/STM32F4xx_HAL_Driver/Src/stm32f4xx_hal_rcc.o
 .debug_frame   0x0000000000001f78      0x1e0 Drivers/STM32F4xx_HAL_Driver/Src/stm32f4xx_hal_rcc_ex.o
 .debug_frame   0x0000000000002158      0x824 Drivers/STM32F4xx_HAL_Driver/Src/stm32f4xx_hal_spi.o
 .debug_frame   0x000000000000297c     0x10f0 Drivers/STM32F4xx_HAL_Driver/Src/stm32f4xx_hal_tim.o
 .debug_frame   0x0000000000003a6c      0x5c0 Drivers/STM32F4xx_HAL_Driver/Src/stm32f4xx_hal_tim_ex.o
 .debug_frame   0x000000000000402c      0x844 Drivers/STM32F4xx_HAL_Driver/Src/stm32f4xx_hal_uart.o
 .debug_frame   0x0000000000004870       0x4c FATFS/App/fatfs.o
 .debug_frame   0x00000000000048bc       0xc8 FATFS/Target/user_diskio.o
 .debug_frame   0x0000000000004984       0xec Middlewares/Third_Party/FatFs/src/diskio.o
 .debug_frame   0x0000000000004a70      0x94c Middlewares/Third_Party/FatFs/src/ff.o
 .debug_frame   0x00000000000053bc       0xc8 Middlewares/Third_Party/FatFs/src/ff_gen_drv.o
 .debug_frame   0x0000000000005484       0x2c /Applications/STM32CubeIDE.app/Contents/Eclipse/plugins/com.st.stm32cube.ide.mcu.externaltools.gnu-tools-for-stm32.7-2018-q2-update.macos64_1.0.0.201904181610/tools/bin/../lib/gcc/arm-none-eabi/7.3.1/../../../../arm-none-eabi/lib/thumb/v7e-m/fpv4-sp/hard/libc_nano.a(lib_a-init.o)
 .debug_frame   0x00000000000054b0       0x38 /Applications/STM32CubeIDE.app/Contents/Eclipse/plugins/com.st.stm32cube.ide.mcu.externaltools.gnu-tools-for-stm32.7-2018-q2-update.macos64_1.0.0.201904181610/tools/bin/../lib/gcc/arm-none-eabi/7.3.1/../../../../arm-none-eabi/lib/thumb/v7e-m/fpv4-sp/hard/libc_nano.a(lib_a-itoa.o)
 .debug_frame   0x00000000000054e8       0x20 /Applications/STM32CubeIDE.app/Contents/Eclipse/plugins/com.st.stm32cube.ide.mcu.externaltools.gnu-tools-for-stm32.7-2018-q2-update.macos64_1.0.0.201904181610/tools/bin/../lib/gcc/arm-none-eabi/7.3.1/../../../../arm-none-eabi/lib/thumb/v7e-m/fpv4-sp/hard/libc_nano.a(lib_a-memset.o)
 .debug_frame   0x0000000000005508       0x48 /Applications/STM32CubeIDE.app/Contents/Eclipse/plugins/com.st.stm32cube.ide.mcu.externaltools.gnu-tools-for-stm32.7-2018-q2-update.macos64_1.0.0.201904181610/tools/bin/../lib/gcc/arm-none-eabi/7.3.1/../../../../arm-none-eabi/lib/thumb/v7e-m/fpv4-sp/hard/libc_nano.a(lib_a-utoa.o)
 .debug_frame   0x0000000000005550       0x2c /Applications/STM32CubeIDE.app/Contents/Eclipse/plugins/com.st.stm32cube.ide.mcu.externaltools.gnu-tools-for-stm32.7-2018-q2-update.macos64_1.0.0.201904181610/tools/bin/../lib/gcc/arm-none-eabi/7.3.1/../../../../arm-none-eabi/lib/thumb/v7e-m/fpv4-sp/hard/libm.a(lib_a-sf_sin.o)
 .debug_frame   0x000000000000557c       0x38 /Applications/STM32CubeIDE.app/Contents/Eclipse/plugins/com.st.stm32cube.ide.mcu.externaltools.gnu-tools-for-stm32.7-2018-q2-update.macos64_1.0.0.201904181610/tools/bin/../lib/gcc/arm-none-eabi/7.3.1/../../../../arm-none-eabi/lib/thumb/v7e-m/fpv4-sp/hard/libm.a(lib_a-ef_rem_pio2.o)
 .debug_frame   0x00000000000055b4       0x20 /Applications/STM32CubeIDE.app/Contents/Eclipse/plugins/com.st.stm32cube.ide.mcu.externaltools.gnu-tools-for-stm32.7-2018-q2-update.macos64_1.0.0.201904181610/tools/bin/../lib/gcc/arm-none-eabi/7.3.1/../../../../arm-none-eabi/lib/thumb/v7e-m/fpv4-sp/hard/libm.a(lib_a-kf_cos.o)
 .debug_frame   0x00000000000055d4       0x5c /Applications/STM32CubeIDE.app/Contents/Eclipse/plugins/com.st.stm32cube.ide.mcu.externaltools.gnu-tools-for-stm32.7-2018-q2-update.macos64_1.0.0.201904181610/tools/bin/../lib/gcc/arm-none-eabi/7.3.1/../../../../arm-none-eabi/lib/thumb/v7e-m/fpv4-sp/hard/libm.a(lib_a-kf_rem_pio2.o)
 .debug_frame   0x0000000000005630       0x20 /Applications/STM32CubeIDE.app/Contents/Eclipse/plugins/com.st.stm32cube.ide.mcu.externaltools.gnu-tools-for-stm32.7-2018-q2-update.macos64_1.0.0.201904181610/tools/bin/../lib/gcc/arm-none-eabi/7.3.1/../../../../arm-none-eabi/lib/thumb/v7e-m/fpv4-sp/hard/libm.a(lib_a-kf_sin.o)
 .debug_frame   0x0000000000005650       0x20 /Applications/STM32CubeIDE.app/Contents/Eclipse/plugins/com.st.stm32cube.ide.mcu.externaltools.gnu-tools-for-stm32.7-2018-q2-update.macos64_1.0.0.201904181610/tools/bin/../lib/gcc/arm-none-eabi/7.3.1/../../../../arm-none-eabi/lib/thumb/v7e-m/fpv4-sp/hard/libm.a(lib_a-sf_fabs.o)
 .debug_frame   0x0000000000005670       0x20 /Applications/STM32CubeIDE.app/Contents/Eclipse/plugins/com.st.stm32cube.ide.mcu.externaltools.gnu-tools-for-stm32.7-2018-q2-update.macos64_1.0.0.201904181610/tools/bin/../lib/gcc/arm-none-eabi/7.3.1/../../../../arm-none-eabi/lib/thumb/v7e-m/fpv4-sp/hard/libm.a(lib_a-sf_floor.o)
 .debug_frame   0x0000000000005690       0x3c /Applications/STM32CubeIDE.app/Contents/Eclipse/plugins/com.st.stm32cube.ide.mcu.externaltools.gnu-tools-for-stm32.7-2018-q2-update.macos64_1.0.0.201904181610/tools/bin/../lib/gcc/arm-none-eabi/7.3.1/../../../../arm-none-eabi/lib/thumb/v7e-m/fpv4-sp/hard/libm.a(lib_a-sf_scalbn.o)
 .debug_frame   0x00000000000056cc       0x20 /Applications/STM32CubeIDE.app/Contents/Eclipse/plugins/com.st.stm32cube.ide.mcu.externaltools.gnu-tools-for-stm32.7-2018-q2-update.macos64_1.0.0.201904181610/tools/bin/../lib/gcc/arm-none-eabi/7.3.1/../../../../arm-none-eabi/lib/thumb/v7e-m/fpv4-sp/hard/libm.a(lib_a-sf_copysign.o)
 .debug_frame   0x00000000000056ec       0x2c /Applications/STM32CubeIDE.app/Contents/Eclipse/plugins/com.st.stm32cube.ide.mcu.externaltools.gnu-tools-for-stm32.7-2018-q2-update.macos64_1.0.0.201904181610/tools/bin/../lib/gcc/arm-none-eabi/7.3.1/thumb/v7e-m/fpv4-sp/hard/libgcc.a(_aeabi_uldivmod.o)
 .debug_frame   0x0000000000005718       0x34 /Applications/STM32CubeIDE.app/Contents/Eclipse/plugins/com.st.stm32cube.ide.mcu.externaltools.gnu-tools-for-stm32.7-2018-q2-update.macos64_1.0.0.201904181610/tools/bin/../lib/gcc/arm-none-eabi/7.3.1/thumb/v7e-m/fpv4-sp/hard/libgcc.a(_udivmoddi4.o)
